:020000040800F2
:10000000A09D0020494A00081D4700081F4700081E
:10001000454700084747000849470008000000001E
:100020000000000000000000000000004B47000836
:100030004D470008000000004F4700083B3E000805
:10004000CD4A0008D14A0008D54A0008D94A00081C
:10005000DD4A0008E14A0008E54A0008E94A0008CC
:10006000ED4A0008F14A0008F54A0008F94A00087C
:10007000FD4A0008014B0008054B0008094B000829
:100080000D4B0008114B0008154B0008194B0008D8
:100090001D4B0008214B0008254B0008294B000888
:1000A0002D4B0008314B0008354B0008394B000838
:1000B000AD3E0008414B0008454B0008494B000885
:1000C0004D4B0008514B0008554B0008594B000898
:1000D0005D4B00080D32000817320008213200087D
:1000E0006D4B0008714B0008754B0008794B0008F8
:1000F0007D4B0008814B0008854B0008894B0008A8
:100100008D4B0008914B0008954B0008994B000857
:100110009D4B0008A14B0008A54B0008A94B000807
:10012000AD4B0008B14B0008B54B0008B94B0008B7
:100130002DE9F04FA5B0804615461E460FF2D85067
:10014000D0E90023CDE91223049104AF00207862A6
:1001500014AC6FF0004900E055440020ADF80200F7
:1001600012AB4FF0FF3229460DF1020001F035F8D5
:100170008246BAF1010F08DA2878B0F1010A6AEB79
:100180000A0A6FEA0A004FEAD07ABDF80200252871
:100190000CBFAAF101035346012B07DB2A4602A933
:1001A000404600F0F5FF002800F1EB80BDF80200AA
:1001B000252807D10020F86038617861B861F861BE
:1001C000386205E00028C7D1786ADCE040F0010021
:1001D00015F8011F2029F9D023290ED02B2904D08E
:1001E0002D2906D030290CD00FE040F0020080B25B
:1001F000EEE740F0040080B2EAE740F0080080B289
:10020000E6E740F0100080B2E2E72A290DD131681C
:100210000A1D32600968F962002904D54942F96271
:1002200040F0040080B26D1C11E00021F96209E089
:10023000F96A494505D001EB810302EB43013039EE
:10024000F9626D1C2A78A2F130010A29F0D32978CD
:100250002E291CBF4FF0FF31B9621CD115F8011FC8
:100260002A2906D131680A1D32600968B9626D1CFD
:1002700011E00021B96209E0B96A494505D001EBF6
:10028000810302EB43013039B9626D1C2A78A2F177
:1002900030010A29F0D3388629780FF2844000F023
:1002A000C3FF08B115F8010B8DF842009DF842001C
:1002B000682804D1287868280AD1622005E06C28D3
:1002C00004BF28786C2803D171208DF842006D1C82
:1002D00014A8B8602A781046253828D01C3800F0B9
:1002E0008B80001F022840F28780133800F0B08016
:1002F000093800F08180801E00F04A81401E00F025
:10030000F080401E022877D9001F00F0EA80401FCD
:1003100047D0401E00F09C80401E37D0C01E0CD03D
:10032000801E00F09580C01E00F0928051E1F868B8
:10033000411CF9602521015555E19DF842006C28CA
:10034000306814D0011D316000687860BA6A002AF4
:1003500003D500F085FF386145E1002100F0A0FFE2
:1003600000281ABF7968401AB86A38613BE1011D5C
:100370003160026802A9404600F0D6F9002840F139
:1003800032814FF0FF3025B0BDE8F08F3068011D9D
:10039000316000680021CDE9020114A8786078215D
:1003A000F2E09DF84200622818D0682806D06A283A
:1003B0000BD06C2819D0712807D016E03068011DC9
:1003C0003160796A006801800DE13268101D30608B
:1003D000786AC1171268C2E9000104E13068011DA2
:1003E0003160796A00680170FDE03068011D31609C
:1003F000796A00680160F6E03068C01D20F00700EF
:100400003060034603F108003060D3E90001CDE914
:100410000201002904D5F868411CF9602D210DE086
:10042000388E810704D5F868411CF9602B2105E05E
:10043000C00704D5F868411CF96020210155F8680F
:1004400014A940187860114602A800F06DFBCAE0BC
:100450009DF842306C2B08BF306811D0712B08BF5B
:10046000306802D06A2B30680AD1C01D20F0070026
:10047000306084460CF108003060DCE9000103E0E4
:10048000011D316000680021CDE90201682B04BF25
:10049000DDE9020180B20BD0622B04BFDDE902016D
:1004A000C0B205D0742B18BF7A2B04D1DDE902014C
:1004B0000021CDE9020197F8300000075FD5DDE9A2
:1004C0000201002908BF002859D042F020007828F6
:1004D00055D1F86830210155401C411CF960025586
:1004E0004DE09DF8420062280CD0682810D06A28A0
:1004F0001AD06C2824D0712816D0742820D07A28DD
:100500000CD01DE03068011D316090F900001BE047
:100510003068011D3160B0F9000015E03068011D40
:1005200031600068002110E03068C01D20F0070035
:100530003060034603F108003060D3E9000104E0B5
:100540003068011D31600068C117CDE90201DDE9A5
:100550000201002904DAF868411CF9602D210DE040
:10056000388E810704D5F868411CF9602B2105E01D
:10057000C00704D5F868411CF96020210155F868CE
:1005800014A940187860114602A800F03AFA2AE04F
:100590009DF842006C2808D0F868411CF960316869
:1005A0000A1D3260096801551DE03068011D316087
:1005B0000068ADF804000020ADF806004FF0FF30F1
:1005C000B86201AA02A9404600F0AEF800280AD598
:1005D000D7E6F868411CF960252101551AB1F86881
:1005E000411CF96002556D1CF86AF968401AB96936
:1005F000401A3969401AF969401A7969401A396A0A
:10060000A0EB010A97F83000400712D420208DF8A3
:100610000000BAF1010F0CDBD346012300AA02A9A6
:10062000404600F0B5FD00287FF4ABAEBBF1010BF6
:10063000F3D1FB6814AA02A9404600F0A9FD0028E6
:100640007FF49FAE30208DF80000D7F818B0BBF1D2
:10065000010F0BDB012300AA02A9404600F098FD20
:1006600000287FF48EAEBBF1010BF3D13B697A68B1
:1006700002A9404600F08CFD00287FF482AE3020B5
:100680008DF80000D7F81CB0BBF1010F0BDB012384
:1006900000AA02A9404600F07BFD00287FF471AE5D
:1006A000BBF1010BF3D17B6938697968421802A963
:1006B000404600F06DFD00287FF463AE30208DF8D9
:1006C0000000D7F820B0BBF1010F0BDB012300AA1B
:1006D00002A9404600F05CFD00287FF452AEBBF159
:1006E000010BF3D197F8300040077FF536AD20209D
:1006F0008DF80000BAF1010FFFF62FAD012300AA1B
:1007000002A9404600F044FD00287FF43AAEBAF159
:10071000010AF3D121E50000000000000000000004
:10072000686A6C747A4C00002DE9F04F95B08346EE
:100730000F461446D7F830A0BAF1000F48BF6FF04B
:10074000004A00F0D9FD796B401801900FF6702235
:10075000D2E90001CDE9020197F83800400702D440
:100760000198412805D20DF1100940200190002583
:100770000AE000F0C7FD8146B9F1000FF7D14FF054
:10078000FF303BE1AAEB080ABAF1010FC0F2A980E1
:1007900002AA21880DF1010000F012FE5FEA0008B4
:1007A00000F1BF80208818B9B8F1010800F1B980C4
:1007B000C245C0F296807869019908EB0002914227
:1007C00080F080807D634042396A401AB969401ADE
:1007D000796A401AF969401AB96A451A97F83800D7
:1007E000400710D420208DF80000012D0BDB2E4691
:1007F000012300AA3946584600F0CAFC002840F000
:100800009080761EF4D17B694A463946584600F0FE
:10081000BFFC002840F0858030208DF800003E6A43
:10082000012E09DB012300AA3946584600F0B0FC2E
:10083000002876D1761EF5D1BB69FA68394658464C
:1008400000F0A6FC00286CD130208DF800007E6AF4
:10085000012E09DB012300AA3946584600F098FC16
:1008600000285ED1761EF5D1FB69B869F968421897
:100870003946584600F08CFC002852D130208DF8C3
:100880000000BE6A012E09DB012300AA3946584642
:1008900000F07EFC002844D1761EF5D197F8380090
:1008A00040070DD520208DF80000012D08DB012325
:1008B00000AA3946584600F06BFC90BB6D1EF6D17D
:1008C00000257D6142460DF101017869484400F040
:1008D00085FD78694044786134F8020B00287FF484
:1008E00051AF786B7969401A396A401AB969401A70
:1008F000796A401AF969401AB96AA0EB010897F8B9
:100900003800400712D420208DF80000B8F1010F04
:100910000CDB4446012300AA3946584600F038FC57
:1009200010B14FF0FF3562E0641EF3D17B694A4697
:100930003946584600F02CFC0028F2D130208DF8C2
:1009400000003C6A012C09DB012300AA3946584605
:1009500000F01EFC0028E4D1641EF5D1BB69FA68E2
:100960003946584600F014FC0028DAD130208DF8C2
:1009700000007C6A012C09DB012300AA3946584695
:1009800000F006FC0028CCD1641EF5D1FB69B869E3
:10099000F96842183946584600F0FAFB0028C0D1E1
:1009A00030208DF80000BC6A012C09DB012300AA6D
:1009B0003946584600F0ECFB0028B2D1641EF5D150
:1009C00097F83800400710D520208DF80000B8F1C6
:1009D000010F0ADB012300AA3946584600F0D8FB74
:1009E00000289ED1B8F10108F4D17D617D6304A88F
:1009F00081451CBF484600F02DFD284615B0BDE8D6
:100A0000F08F2DE9FA4B86B005462F696F2908BF94
:100A1000082605D041F02000782814BF0A261026A9
:100A20003C24D5E9000181468B469DF81820642AB4
:100A300018BF692A05D1002903DAD9F100096BEB47
:100A40004B0BBBF1000F08BFB9F1000F0CD1286BA5
:100A500050B9082E44D195F83800000740D53B2402
:100A6000302087F83B003BE0A4F101084446F01732
:100A7000CDE9046048465946DDE9042300F02EFD27
:100A8000CDE90201CDE9009BDDE90223DDE90401A6
:100A9000A0FB029BDDE90001A0EB09003030C0B2F1
:100AA0003A2803D39DF818105139081808F80700A0
:100AB000DDE9029BBBF1000F08BFB9F1000F03D0C5
:100AC000E868E1198842CFD3082E09D195F838009B
:100AD000000705D5E05D302802D0641E3020E055C7
:100AE000C4F13C00A861E119E960296B884207DA8A
:100AF000081A2862288F4FF6EF710840288710E007
:100B000000290ED595F8381001F01401102908D1EC
:100B1000696B6A69891A2A6A891A0C1A012CA8BF9A
:100B20002C6208B0BDE8F08B2DE9F24F8EB005467F
:100B300004AFD5E90001CDE902019DF8380040F08D
:100B400020008DF8000061280BD0286B002848BFDA
:100B5000062005D404BF9DF80000672801D10120BC
:100B600028636968C1F30A5040F2FF7398421CD1B0
:100B7000080304BF2868002809D10320A8619DF854
:100B8000380061381A2837D30FF2486108E0032093
:100B9000A8619DF8380061381A282AD30FF22C6119
:100BA0000322E86800F01AFCBBE1010017D12846D7
:100BB00000F00BFD012812DB002400209DF800103E
:100BC000612920D1E968302201F8012B4A1CEA6032
:100BD0009DF83820612A0CBF782258220FE040F29D
:100BE000FE316A6861F31E526A60441A4FF0FF30AA
:100BF000E4E70FF2D451D3E70FF2D451D0E70A70F3
:100C00006969891C696110B90026B0467FE19DF8C9
:100C10000000612840F09780286B00284CBF2126F7
:100C2000461C36B2771CD5E900ABDDE90201002293
:100C3000002300F0EDFC3ABF8BF00040CDE902A0AC
:100C4000CDE902ABA4F104088DF810200DF11109D3
:100C5000012F33DBDDE902010022002300F0F0FC6C
:100C60002CD21C2102A800F003FDDDE9020100F0F6
:100C70008DFD0446FF1F012F09DB00F0B3FD024686
:100C80000B46DDE9020100F0C5FDCDE9020109F2E4
:100C90000700072104E004F00F0200F8012D2411E1
:100CA000012C01DB491EF6D5491E5CBF002200F86D
:100CB000012DF9D500F20709012FCBDA0DF1110052
:100CC000A9EB00010DF11107B142B8BF0E4636B2D3
:100CD000002E31D43046884206DA04A941184978FA
:100CE000082928BF0F2100D2002104AA821800E0A1
:100CF000761E401E12F801398B42F9D00F2904D11B
:100D000004A941184A78521C4A70002803D504AF40
:100D1000761C08F1040836B2701E0DD4C1190A7889
:100D20003032D2B23A2A03D39DF838303A3B9A187F
:100D300001F80129401EF2D5286B002840F1E78018
:100D4000701E2863E3E0DDE902010022002300F0C9
:100D50005FFC05D2DDE9020181F00041CDE902012D
:100D600024B247F2975060436F4990FBF1F80FFAB5
:100D700088F8C8F107040027DFF8B091012C19DBCF
:100D8000DDE902ABE00707D5504659463A464B46E7
:100D900000F000FE82468B466410384649463A46CB
:100DA0004B4600F0F7FD07468946002CEAD1CDE915
:100DB00002AB21E064429246DFF874B114D0E00740
:100DC00007D5504659463A464B4600F0E3FD824669
:100DD0008B466410384649463A464B4600F0DAFDE9
:100DE00007468946002CEAD1DDE9020152465B46FE
:100DF00000F0A2FECDE902019DF8000066280CBFBC
:100E000008F10A000620296B4618142EA8BF1326E5
:100E100030208DF810000DF11104464F012E33DB08
:100E2000DDE9020100F0C8FC04F1080104220A24F3
:100E3000B0FBF4F303EB830EA0EB4E00303001F86F
:100E4000010DB3FBF4F000EB8004A3EB440330335B
:100E500001F8013D521EEAD101F10804083E012EBD
:100E6000DCDBDDE9020100F0A7FC00F0C5FC024676
:100E70000B46DDE9020100F0CDFC00223B4600F00C
:100E800089FDCDE90201CBE70DF11100201A0DF12A
:100E900011079DF81110302906D1401EA8F1010854
:100EA00017F8011F3029F8D09DF80010662904BFFB
:100EB0000FFA88F808F1010103D065290CBF012160
:100EC00000212A6B8E1836B2B042B8BF064636B241
:100ED000002E1CD43146814204DAC85D352828BF73
:100EE000392000D23020CA19521E00E0761E491E59
:100EF00012F801398342F9D0392802D1C85D401C6B
:100F0000C855002903D57F1E761C08F101080FFA89
:100F100088F0009033B23A469DF83810284600F029
:100F20000BF80FB0BDE8F08FA08601000000244050
:100F30000000F03F84D797412DE9F04786B0064680
:100F40008A4690461C46BDF9385000F036FF406A8C
:100F500090F80090376B012C02DA01240FF2782808
:100F60004AF02000662807D067287AD16FF0030185
:100F70008D427CDBBD427ADA6D1C66280AD096F879
:100F80003800000702D4BC42B8BF27462DB27F1BF1
:100F900048BF0027F068B1692DB2012D21DA4A1C43
:100FA00030230B54012F03DA96F83810090702D5C5
:100FB00002F80090521CB261EF42B8BF7D422DB2E0
:100FC00069427162EF19A742B8BF3C4624B2F4618E
:100FD00022464146B369181800F000FA381BB06287
:100FE000BFE00818AC4216DA2246414600F0F6F996
:100FF000B1696118B161281B7062012F03DA96F89C
:101000003800000705D5F06801F80090F069401C31
:10101000F061B762A5E02A46414600F0DFF9B06909
:101020002818B061641B012F03DA96F838100907FD
:1010300004D5411CB161F16800F8019024B2A742C7
:10104000B8BF3C4624B2224605EB0801B069F368FC
:10105000C01800F0C3F9B0692018B061381B706285
:101060007FE0BAF1610F14D14FF0700A16E0BC4274
:1010700004DA96F83810090758BF27467F1E48BF84
:101080000027BAF1670F14BF4FF0450A4FF0650A09
:1010900004E0BAF1410F08BF4FF0500AB1694A1C91
:1010A000F06818F8013B0B54012F03DA96F838105A
:1010B000090702D502F80090521CB261012F10DB23
:1010C000641E24B2A742B8BF3C4624B22246414621
:1010D000B369181800F082F9B0692018B061381BA4
:1010E0007062B069F16800EB010808F801AB002DEF
:1010F0005CBF2B2008F8010B03D52D2008F8010B4D
:101100006D42002402AF2DB2012D0EDB0A222946CA
:1011100000A800F06BFE019807F8010B009D641C0D
:101120002DB2012DF2DA022C06DA4AF020006528F1
:1011300004BF302008F8010B1CB9302008F8010B5F
:1011400009E0012C07DB641E02A8205C303008F89F
:10115000010B012CF7DAB069F1684018A8EB000028
:10116000F06196F8380000F0140010280DD1706975
:10117000B1690818716A0818F1690818B16A081885
:10118000716B8842BCBF081A306206B0BDE8F087B8
:10119000F8B504460D4616461F46002077B116F8EE
:1011A000011BA868A047A86030B1E86A401CE8624B
:1011B00000207F1EF3D1F2BD4FF0FF30F2BD0000E2
:1011C00000000000000000006E616E004E414E0005
:1011D000696E6600494E46003000F8B504460D467B
:1011E00016461F4600F00AFE3B4632462946204678
:1011F00001B0BDE8F04000F019BE10B450F8041B77
:1012000081B102681218001D50F8043BDC0744BF8E
:10121000A9F10104E31852F8044B43F8044B091FE9
:10122000F9D1EBE710BC70470278C9B28A421AB113
:101230001CBF10F8012FF9E718BF0020704750F8C5
:10124000041B61B150F8042BD30744BFA9F101037B
:101250009A18002342F8043B091FFAD1EFE77047C0
:1012600000F10103810704D010F8011B89B1810747
:10127000FAD10268B2F10131914311F0803F04BF0D
:1012800050F8042FF6E710F8011B11B110F8011BFC
:10129000FBE7C01A70470268531C03601170704767
:1012A000C9B2830706D0521E22D310F8013B9942DF
:1012B000F7D11FE0083A13D302F1040241EA0121F9
:1012C00041EA014150F8043B121F21BF4B40A3F1FA
:1012D000013C2CEA030C1CF0803FF3D0C9B2001F84
:1012E000083210F8013B521E28BF91EA030FF8D8CC
:1012F00018BF0120401E704780B500F07FFD01201F
:1013000002BD000070B5054605F10F00C408E400F9
:10131000012000F0E5FDA5422BD2082C04D20824C0
:1013200002E0083000F096F8244D286801000CD146
:10133000291D0868B8B10268A24238BF011DF8D360
:1013400016E01368A34213D2111D0A68002AF8D1CF
:101350000068291D00E0111D0A68824203D013684D
:10136000A342F8D304E000F00BFE0028D9D10021FD
:1013700021B9012000F0F8FD002070BD0E68306832
:10138000A0F10802A2423CBF7068086007D3A2190E
:101390000A6073685360001B0A6810603460086854
:1013A00000281DBF41680029001D00202860012081
:1013B00000F0DAFD06F1080070BD0000741D002089
:1013C00070B504460D46164600F018FD3246294613
:1013D0002046BDE8704000F01BBD000062B38B07E3
:1013E00008D0521E11F8013B00F8013B00F02480A8
:1013F0008B07F6D1830740F0208000BF103A07D357
:1014000030B4B1E83810103AA0E83810F9D230BC46
:10141000530724BFB1E80810A0E8081044BF51F8F2
:10142000043B40F8043BD20724BF31F8022B20F8DC
:10143000022B44BF0B7803707047083A07D3B1E81A
:101440000810083A40F8043B40F804CBF7D25307A1
:10145000E4E7000000B9704710B5A0F10804206867
:10146000082837D310F0070034D1012000F038FDF0
:101470001948416809B18C4203D26160446017E0A9
:1014800019464B680BB1A342FAD30A6853189C4221
:101490001BD3A34204D123689A180A600C4607E0C4
:1014A0004A681AB123681B199A420ED362604C60D5
:1014B000616851B1226813198B4206D10023036081
:1014C000086880182060486860600120BDE810400E
:1014D00000F04ABD10BD0000741D00201B4213D156
:1014E000094236D12AB18446B0FBF2F002FB10C2A9
:1014F000704700F059BDFCD30022002370470B0059
:101500000200002100207047904271EB030CF6D3DB
:1015100070B5B1FA81F4B3FA83F52C1BA340C4F182
:10152000200532FA05F63343A2405FF00046E6405C
:1015300002E05B085FEA3202841A71EB030524BF04
:10154000204629467641F4D302000B0030000021EA
:1015500070BD012ACFD970B5140C20D0B1FA81F436
:10156000B2FA82F5C4F120046419B4F12006D6D38E
:10157000B2405FF00044F440002502E052085FEA08
:101580003303C61A71EB020E24BF30467146644124
:101590006D41F3D302000B002000290070BD0C4602
:1015A000B1FBF2F102FB11452D0445EA1045B5FBF4
:1015B000F2F402FB145580B240EA0545B5FBF2F0A7
:1015C00002FB105240EA044070BD30B4416801F0A3
:1015D0000042012143681B031B0B436004BF0368E7
:1015E000002B0ED003684468DD0F45EA44044460D4
:1015F0005B000360491EE302F4D543681B031B0B29
:10160000436043681A434260084630BC704700009C
:101610004FF4001C1CEB410F94BF1CEB430F09E07F
:1016200041EA030C50EA4C0C52EA0C0C03D29942EA
:1016300008BF9042704714BF8B428242704700003F
:101640004FF4001C1CEB410F94BF1CEB430F09E04F
:1016500041EA030C50EA4C0C52EA0C0C03D28B42C8
:1016600008BF8242704714BF994290427047000001
:1016700070B504460D466068C0F30A5040F2FF7230
:10168000904207D16068000304BF2068002818D08A
:10169000022070BD010004D12046FFF796FF01280B
:1016A00067DA012D0FDB40F2FF71091A8D420AD370
:1016B0006068002847BF00202F4900202F49C4E957
:1016C0000001012070BD4142A942616806DA2C4A3E
:1016D0001140401941EA0050606053E001F00041C0
:1016E00062681203120B42F480126260401E4519B8
:1016F00005F13500352803D361600020206070BDFE
:10170000002215F11F0F05DA20352268606820607D
:1017100000206060684213D0521E9241D243C0F153
:10172000200325689D4055EAD2722568C540666849
:1017300006FA03F32B432360636823FA00F060602A
:10174000606808436060B2F1004F03D80BD1207885
:10175000C00708D52068401C2060206818B9606860
:10176000401C60600EE06068884204BF206800286A
:10177000F8D1002070BD00000000F0FF0000F07FF5
:10178000FFFF0F804FF0FF3070BD0000F446400DAA
:1017900040EAC120490006D200F014F8004248BFD8
:1017A0006FF00040604700F00DF84FF000418842B4
:1017B0008CBF084640426047400D40EAC1204900C6
:1017C00080F00D8040F00040490DA1F58061491C7A
:1017D00005D4D1F11F0154BFC840C01770474FF066
:1017E00000007047010040F10980F446404200F0DB
:1017F00005F851F000416047010000BF09D0B0FA80
:1018000080F18840C91CC1F58461090501EBD02134
:101810004005704770B44FF0004591EA030F44BF94
:101820006B4000F0C3BB00BF841A71EB030604D207
:101830006E40001BB141121973414FF4001C1CEBA8
:10184000410F34BF7CEB430684E00C0DA4EB135630
:10185000362E7DDC012E43DC45EAC32343EA525396
:1018600012BFD20292025B08240545EAC12141EA77
:101870005051D2EBC020994125D407D1B0FA80F65F
:1018800010FA06F164D00020203608E0B1FA81F6A3
:10189000B140C6F1200220FA02F21143B0404FEAF3
:1018A000F474B4EB465434F001064FEA74040AD8D9
:1018B000D6F50016760D04F00044F04061FA06F209
:1018C0005040F1404840C00A40EA415021F00041F8
:1018D00028BF5FEA500550F1000044EBD12137E00A
:1018E00045EAC323DB0A45EAC121C90AB6F120054E
:1018F0000EDD42EA0242120CC5F1200603FA06F69A
:10190000EB4042EA06056D42984161F100010DE0AD
:1019100062FA06F5F240554063FA06FC82EA0C02D0
:10192000F3405A406D42904161EB030111F4801F76
:1019300005D1641E620502D06D004041494121F489
:101940008011430875F1004350F1000041EB045150
:1019500070BC70471CEB410F15D223F0004352EAD4
:1019600043060BD04FEA4C0CBCEB410F04D80C0DD6
:10197000661E342EB7DDEBE7801A994150EA410626
:1019800008BF0021E4E708BF1CEB430F28BF6FF03E
:101990000001DDE7B0B581EA030C0CF0004C40F229
:1019A000FF7515EA11541DBF15EA1357AC42AF423B
:1019B00039E0E41923EA455343F48013C90241F0A6
:1019C000004141EA505EC7021100A7FB0202002855
:1019D0004FF00000EEFB01204FF00001E3FB072178
:1019E00018BF42F00102401800214941E3FB0E01FB
:1019F000A4F580640F0302D252004041494154F1E2
:101A000001046CDD470872F1004250F1000051EB17
:101A10000451A1F580115CBF41EA0C01B0BD4CEA54
:101A200005510020B0BD05EA1357AC4214BFAF42C8
:101A300041E050EA410E1CBF52EA430E02E061460B
:101A40000020B0BD24423C441BD15FEA070EF6D013
:101A5000090302BF01460020AEF1140EB1FA81F76E
:101A6000AEEB070401FA07FE0C37C7F1200100FABC
:101A700007F7C8404EEA000E23EA455343F48013AB
:101A8000A2E733F00043B3FA83F704BFB2FA82FE51
:101A900077440B3FE41BB7F1200E2FBF02FA0EF381
:101AA000BB40C7F1200E22FA0EFE38BF43EA0E03F8
:101AB000BA40641C82E750EA410E14BF52EA430E5A
:101AC0006FF000014FF4001717EB430F8ABF194660
:101AD00017EB410FB5E74CEA05510020B0BDD4F13A
:101AE0000104B4F120070FDAC4F12007520828BF1F
:101AF00042F0010210FA07F501FA07F7E1BF2A43A5
:101B0000E0403843E1400FE0352C98DCC7F1200479
:101B100052EA400220FA07F218BF42F0010231FAFD
:101B200007F0A1400A43002172F1004250F1000089
:101B300051EB0C01B0BD0000F0B540F2FF7581EA39
:101B4000030C0CF0004C15EA11541DBF15EA135795
:101B5000AC42AF42E5E0BC41C1F31301C3F3130350
:101B6000801A994143F4801304D2641E4000494115
:101B700080185941C90241EA5051B1FBF3F603FB09
:101B80001611A2FB0675D7EBC020A94102D2761E22
:101B900080185941C90241EA5051B1FBF3FE03FBE1
:101BA0001E11A2FB0E75D7EBC020A94103D2AEF1E6
:101BB000010E80185941890241EA9051760546EAA2
:101BC0008E2EB1FBF3F603FB1611A2FB0675D7EBC5
:101BD0008020A94102D2761E80185941C90241EAEB
:101BE00050514EEA060EB1FBF3F603FB1611A2FBB1
:101BF0000675D7EBC020A94102D2761E8018594144
:101C0000C90241EA5051B1FBF3F703FB1711A2FBE4
:101C10000735D3EBC020A94167F100070CBF004294
:101C200047F0010766F3D5274FEA1E31B80814F5CF
:101C3000806412DDBD0775F1004250EB0E5051EB90
:101C4000045111F5801F5CBF41EA0C01F0BD4CF05E
:101C50007F6141F0E0410020F0BDBD076D0840EA22
:101C60000E5041F48011D4F10104B4F120060ADAD7
:101C7000C4F120060200E04001FA06F3E1401843F7
:101C8000B24015430EE0342C13DCC6F1200445EAC3
:101C900040056D0820FA06F2154321FA06F0A1402E
:101CA0000D43002175F1004250F1000051EB0C0191
:101CB000F0BD00205FEA0C01F0BDCFB992185B4186
:101CC000B3FA83F704BFB2FA82F6BF190B3FB7F13C
:101CD00020062FBF02FA06F3BB40C7F1200622FA06
:101CE00006F638BF3343BA401CB1E419641E33E72B
:101CF0007F4231F00041B1FA81F404BFB0FA80F6BE
:101D0000A4190B3CB4F120062FBF00FA06F1A14044
:101D1000C4F1200620FA06F638BF3143A0403C1B30
:101D20001AE7AC421ABF05EA1357AF4212E050EA75
:101D300041061CBF52EA4306BFE750EA410730465E
:101D400061461CBF41EA0551F0BD52EA430C08BF91
:101D5000C143F0BD00204FF4001616EB410F98BFB1
:101D600016EB430F08BF16EB410F24BFC14305E03C
:101D700016EB430F0CBF61464CEA0551F0BD000065
:101D800080B5134800F07CF90FF248010160416012
:101D90008160C1600161416181610FF23C02426278
:101DA0008162C162016341630FF2300282630FF20C
:101DB0003402C2630164416401BD10B5044800F0FF
:101DC0005FF90446206808B9FFF7DAFF204610BD26
:101DD00000000020000000002E00000066616C730F
:101DE00065000000747275650000000091FBF2F35D
:101DF00003FB1211C0E900317047000080B5DFF825
:101E00000C0000F03DF9806902BD0000C81B0020F5
:101E100030B438B90FF24400D0E90045C2E90045BA
:101E2000002001E00170012030BC704730B439B9A6
:101E30000FF23000D0E90045C3E9004500200BE077
:101E400012B96FF0010007E008B10A780280097842
:101E5000481E8041C043C00F30BC704700000000E6
:101E600000000000000000000000000010B5434C1E
:101E70002068A0B3201D00F005F904F1080000F06F
:101E800001F904F10C0000F0FDF804F1100000F07D
:101E9000F9F804F1140000F0F5F804F1180000F06E
:101EA000F1F804F11C0000F0EDF804F1200000F05E
:101EB000E9F804F1240000F0E7F804F1280000F04C
:101EC000E3F804F12C0000F0DFF804F1300000F03A
:101ED000DBF804F13400BDE8104000F0D5B810BDC7
:101EE00038B50446254D286890BB281D00F0C9F878
:101EF00005F1080000F0C5F805F10C0000F0C1F88C
:101F000005F1100000F0BDF805F1140000F0B9F87B
:101F100005F1180000F0B5F805F11C0000F0B1F86B
:101F200005F1200000F0ADF805F1240000F0ABF859
:101F300005F1280000F0A7F805F12C0000F0A3F847
:101F400005F1300000F09FF805F1340000F09BF837
:101F500001202860052C06D205EB84002430BDE862
:101F6000324000F092B831BD052805D2034901EB9B
:101F70008000243000F08AB870470000841C0020E4
:101F80000649086808B100207047054808600549FF
:101F9000C908C900091A0160704700BF941D0020DC
:101FA000A09D0020A0A1002070470000841A71EBC2
:101FB000030603D2001BB141121973414FF4001CF8
:101FC0001CEB410F34BF7CEB430443E00C0DA4EB4E
:101FD0001356352E50DC45EAC323DB0A45EAC121FE
:101FE000C912B6F120050DDD63FA05F6EB4086EA6D
:101FF0000305124218BF45F00105C01851F1000158
:102000000CD213E062FA06F5F2405540F3415A4013
:10201000B340F3405A408018594107D349085FEA5A
:1020200030005FEA350528BF45F0010501F5801154
:10203000420875F1004250F1000041EB045170BCC0
:102040004FF4001C1CEB410F38BF70470020090DF6
:10205000090570471CEB410F10D252EA43060BD022
:10206000BCEB410F05D80C0DAB43661E342EB5DD1D
:1020700002E0AB438018594170BC704770BC704798
:10208000704770477047704770477047704700004F
:1020900080B500A9012000F0FEFD00284BD09DF87E
:1020A0000010002000F0EEFDDFF8DC0900780028C9
:1020B0000CD19DF8000024283CD1DFF8CC09012187
:1020C0000170DFF8C8090021018033E0DFF8BC09A6
:1020D00000884FF40071884228D2DFF8B0090088E8
:1020E000DFF8AC199DF800204254DFF8A009008801
:1020F000401CDFF8981908809DF800000D2803D0D7
:102100009DF800000A2815D1DFF880090088411EDB
:1021100089B2DFF87C0900F05CFCDFF86C09002173
:102120000170DFF860090121017003E0DFF8580950
:1021300000210170ADE701BD70B582B004000D0053
:10214000ADB2032D01D2002040E0ADB2281910F845
:10215000030C2A2801D0002038E000200600B6B287
:10216000ADB2E81E86420BDAB6B2305D000603D48B
:10217000B6B2305D002801D1002027E0761CEEE7E2
:1021800020788DF8000001200600B6B2ADB2E81E3E
:10219000864208DA9DF80000B6B2315D48408DF8FD
:1021A0000000761CF1E702220DF1020100A800F008
:1021B000E1FC02220DF10201ADB22819801E01F0EE
:1021C0005BF8002801D1012000E0002076BD70B549
:1021D00004000D002600ADB20020A8552C213000CF
:1021E000FFF722F80600002E00F0E780761C02219F
:1021F000300000F08CFCDFF88C1881F86200B61C0F
:102200000221300000F083FCDFF8781881F86300C9
:10221000B61C0221300000F07AFCDFF8681881F863
:102220006400B61C2C213000FEF7FEFF0600002ED5
:1022300000F0C380761C0221300000F068FCDFF85B
:102240004418A1F84E00B61C0221300000F05FFCDB
:1022500042F210714843DFF82C18086506F20306B5
:102260000421300000F053FCDFF81818096D401805
:10227000DFF810180865361D2C213000FEF7D4FF5A
:102280000600002E00F09980761C3078532805D186
:10229000DFF8F007532180F8541009E030784E2819
:1022A00005D1DFF8E0074E2180F8541000E084E00B
:1022B0002C213000FEF7B8FF0600002E7DD0761CE2
:1022C0000321300000F023FCDFF8B817A1F8560016
:1022D00006F203060221300000F019FC42F21071F0
:1022E0004843DFF8A017886506F203060421300092
:1022F00000F00DFCDFF88C17896D4018DFF88417AB
:102300008865361D2C213000FEF78EFF0600002E5A
:1023100053D0761C3078452805D1DFF86807452171
:1023200080F85C1007E03078572804D1DFF85407B4
:10233000572180F85C102C213000FEF775FF060055
:10234000002E3AD0761C3078312802D030783228EE
:1023500004D1DFF830070121417003E0DFF82407E2
:10236000002141702C213000FEF75EFF0600002E98
:1023700023D0761C300000F099FBDFF808170877AF
:10238000B61C2C213000FEF74FFF0600002E14D0A3
:10239000761C300000F08AFBDFF8E81608832C2159
:1023A0003000FEF741FF0600002E06D0761C3000FC
:1023B00000F07CFBDFF8CC16486070BDF8B5040077
:1023C0000D002700ADB20020E8552C213800FEF7A3
:1023D0002BFF0700002F51D07F1CDFF8A8063978AB
:1023E00001722C213800FEF71FFF0700002F45D097
:1023F0007F1CDFF890063978417200200600F6B2A3
:102400000C2E11D22C213800FEF70EFF0700002FF2
:1024100034D07F1C380000F049FBF6B2DFF86416B8
:1024200071188872761CEAE72C213800FEF7FCFE52
:102430000700002F22D07F1C380000F037FBDFF8A8
:102440004416C8822C213800FEF7EEFE0700002F4C
:1024500014D07F1C380000F029FBDFF82816088311
:102460002C213800FEF7E0FE0700002F06D07F1C6D
:10247000380000F01BFBDFF80C164883F1BD2DE996
:10248000F84304000D000026A046ADB2002005F878
:1024900008002C214046FEF7C7FE8046B8F1000F29
:1024A00000F0838018F101082C214046FEF7BCFEA5
:1024B0008046B8F1000F78D018F10108404600F0CE
:1024C000F5FA06002C214046FEF7AEFE8046B8F134
:1024D000000F6AD018F10108404600F0E7FADFF873
:1024E000A415087700200700FFB2042F5DD22C212D
:1024F0004046FEF799FE8046B8F1000F55D018F11E
:102500000108F6B2FFB217EB8600DFF8781510EB82
:102510000109404600F0CAFA89F806002C2140461D
:10252000FEF782FE8046B8F1000F3ED018F1010898
:10253000F6B2FFB217EB8600DFF8481510EB010981
:10254000404600F0B3FA89F819002C214046FEF706
:102550006BFE8046B8F1000F27D018F10108F6B2E3
:10256000FFB217EB8600DFF81C1511EB400940465F
:1025700000F09CFAA9F822002C214046FEF754FEF8
:102580008046B8F1000F10D018F10108F6B2FFB282
:1025900017EB8600DFF8EC1410EB0109404600F061
:1025A00085FA89F83E007F1C9EE7BDE8F18370B58F
:1025B00004000D002600ADB20020A8552C213000EB
:1025C000FEF732FE0600002E00F0FD80761C022190
:1025D000300000F09CFADFF8AC1481F86200B61C01
:1025E0000221300000F093FADFF8981481F86300BC
:1025F000B61C0221300000F08AFADFF8881481F856
:10260000640006F203060321300000F080FADFF8D0
:102610007414A1F866002C213000FEF705FE0600B8
:10262000002E00F0D080761C3078412804D0DFF8EE
:10263000540400214170C6E0DFF8480401214170D4
:10264000761C2C213000FEF7EFFD0600002E00F076
:10265000BA80761C0221300000F059FADFF8241409
:10266000A1F84E00B61C0221300000F050FA42F2F0
:1026700010714843DFF80C14086506F203060421C4
:10268000300000F044FADFF8FC13096D4018DFF861
:10269000F4130865361D2C213000FEF7C5FD060039
:1026A000002E00F09080761C3078532805D1DFF89A
:1026B000D403532180F8541009E030784E2805D116
:1026C000DFF8C0034E2180F8541000E07BE02C219D
:1026D0003000FEF7A9FD0600002E74D0761C032101
:1026E000300000F014FADFF89C13A1F8560006F24F
:1026F00003060221300000F00AFA42F2107148434A
:10270000DFF88013886506F203060421300000F02C
:10271000FEF9DFF87013896D4018DFF868138865DB
:10272000361D2C213000FEF77FFD0600002E4AD01A
:10273000761C3078452804D1D248452180F85C10B9
:1027400006E03078572803D1CE48572180F85C1036
:102750002C213000FEF768FD0600002E33D0761CD9
:10276000300000F0A3F9C74908672C213000FEF7BC
:102770005BFD0600002E26D0761C300000F096F996
:10278000C049A1F86A002C213000FEF74DFD06007B
:10279000002E18D0761C0221300000F0B8F9B9499B
:1027A00081F86100B61C0221300000F0B0F9B54993
:1027B00081F86000B61C0221300000F0A8F9B14990
:1027C000A1F85E00B61C70BD70B504000D002600B7
:1027D000ADB20020A8552C213000FEF725FD0600E3
:1027E000002E46D0761C300000F060F9A549A1F813
:1027F0006A002C213000FEF717FD0600002E38D0AD
:10280000761C2C213000FEF70FFD0600002E30D084
:10281000761C300000F04AF99A49A1F86C002C218E
:102820003000FEF701FD0600002E22D0761C2C2180
:102830003000FEF7F9FC0600002E1AD0761C30009E
:1028400000F034F98F4908672C213000FEF7ECFCCA
:102850000600002E0DD0761C2C213000FEF7E4FC83
:102860000600002E05D0761C300000F01FF98549C7
:10287000486770BD70B504000D002600ADB20020A1
:10288000A8552C213000FEF7CFFC0600002E00F0EA
:102890009F80761C0221300000F039F97949A1F8B7
:1028A0004E00B61C0221300000F031F942F21071E6
:1028B00048437449086506F203060421300000F01D
:1028C00026F97049096D40186E490865361D2C219E
:1028D0003000FEF7A9FC0600002E79D0761C307877
:1028E000532804D16748532180F8541008E0307809
:1028F0004E2804D163484E2180F8541000E067E070
:102900002C213000FEF790FC0600002E60D0761CD3
:102910000321300000F0FBF85A49A1F8560006F2F6
:1029200003060221300000F0F2F842F21071484331
:102930005449886506F203060421300000F0E7F8E8
:102940005049896D40184F498865361D2C2130004B
:10295000FEF76AFC0600002E3AD0761C3078452837
:1029600004D14848452180F85C1006E030785728AB
:1029700003D14448572180F85C102C213000FEF729
:1029800053FC0600002E23D0761C0221300000F0FC
:10299000BEF83C4981F86200B61C0221300000F00C
:1029A000B6F8384981F86300B61C0221300000F007
:1029B000AEF8344981F86400B61C2C213000FEF7D3
:1029C00033FC0600002E03D0761C30784128FFD15E
:1029D00070BD38B504000D00290089B22000FFF752
:1029E000ABFB01284CD106222A49200000F044FC10
:1029F000002805D1290089B22000FFF7E8FB3FE05D
:102A000006222549200000F037FC002805D12900C6
:102A100089B22000FFF7D2FC32E006221F492000D5
:102A200000F02AFC002805D1290089B22000FFF718
:102A300026FD25E006221A49200000F01DFC002892
:102A400005D1290089B22000FFF7B1FD18E0062268
:102A50001449200000F010FC002805D1290089B29B
:102A60002000FFF7B1FE0BE006220F49200000F026
:102A700003FC002804D1290089B22000FFF7FAFEE8
:102A800031BD0000481B00209A1D0020981D002029
:102A9000A8180020704A0008784A0008804A0008F8
:102AA000884A0008904A0008984A0008F0B40100DB
:102AB0000D002E782D2E03D1012632006D1C01E071
:102AC000002632000026300000263300DBB20F2B38
:102AD00016D22E783400E4B22E2C02D16D1C2E7842
:102AE0003400E4B2302C0BD3E4B23A2C08D20A26DC
:102AF000E4B2B4F1300706FB00706D1C5B1CE5E727
:102B0000D2B2012A01D14042FFE7F0BC7047F0B4D5
:102B10000200160037782D2F04D101273B00761CC8
:102B2000491E01E000273B000027380000273C0039
:102B3000E4B2C9B28C4216D237783D00EDB22E2DE8
:102B400002D1761C37783D00EDB2302D0BD3EDB2BB
:102B50003A2D08D20A27EDB2B5F1300C07FB00C0C0
:102B6000761C641CE4E7DBB2012B01D14042FFE795
:102B7000F0BC704730B400252B00DBB2D2B29342D8
:102B800013D205782C00DD0702D4E4B2240902E058
:102B900014F00F04401CE4B20A2C01D2303400E0DF
:102BA0003734DBB25C545B1CE7E7DBB200255D54D5
:102BB00030BC70470100642202FB01F23C23B2FBEF
:102BC000F3F210007047010042F21072B1FBF2F311
:102BD00002FB13123C235A43100042F21072B0FB66
:102BE000F2F302FB130241F288339A4205D342F218
:102BF0001072B0FBF2F0401C03E042F21072B0FB26
:102C0000F2F080B27047000080B500F055F800F097
:102C10000BF900F0F9F901BD0100C9B2002902D198
:102C2000DFF8080616E0C9B2012902D1DFF8000674
:102C300010E0C9B2022902D1DFF8F8050AE0C9B2F2
:102C4000032901D1002005E0C9B2042901D10020E7
:102C500000E000207047F8B504000D0016002000C9
:102C6000C0B2FFF7D9FF0700002F0AD0F86900288B
:102C700001D0F8698047320092B22900380000F094
:102C8000E9F9F1BD13B50400012201A92000C0B289
:102C9000FFF7E1FF13BD70B504000D002000C0B2C6
:102CA000FFF7BAFF0600002E01D1002003E0290043
:102CB000300000F007FA70BDDFF87005DFF8781516
:102CC0000160DFF86805DFF874154160DFF85C0526
:102CD000DFF86C158160DFF854054FF48061818165
:102CE000DFF848054FF48061C181DFF8400500211D
:102CF0000182DFF8380500214182DFF8300500212C
:102D0000C182DFF8280500210183DFF820050021BA
:102D10004183DFF8180500218182DFF810050021CA
:102D2000C161DFF8080500210162DFF8000500211C
:102D30004162DFF8FC04DFF80C150160DFF8F004F5
:102D4000DFF804154160DFF8E804DFF80015816062
:102D5000DFF8DC044FF480618181DFF8D4044FF4A4
:102D60008061C181DFF8C80400210182DFF8C0045E
:102D700000214182DFF8B8040021C182DFF8B004ED
:102D800000210183DFF8A80400214183DFF8A004BB
:102D900000218182DFF898040021C161DFF89004EE
:102DA00000210162DFF8880400214162DFF8840419
:102DB000DFF89C140160DFF87C04DFF898144160B0
:102DC000DFF87004DFF890148160DFF868044FF4D6
:102DD00080618181DFF85C044FF48061C181DFF89C
:102DE000540400210182DFF84C0400214182DFF805
:102DF00044040021C182DFF83C0400210183DFF894
:102E0000340400214183DFF82C0400218182DFF8A3
:102E100024040021C161DFF81C0400210162DFF8F5
:102E2000140400214162704700B585B001210520DE
:102E300000F0C2FA01214FF4804000F0BDFA4FF4D7
:102E40000070ADF8000018208DF8030003208DF805
:102E5000020000A9DFF8040400F0DAFA4FF4806001
:102E6000ADF8000004208DF8030000A9DFF8EC03A2
:102E700000F0CEFA5FF4E13001900020ADF80800D8
:102E80000020ADF80A000020ADF80C000020ADF8DD
:102E900010000C20ADF80E0001A9DFF89C0300F033
:102EA00053FB012240F22551E34800F0CDFB012104
:102EB000E14800F0BBFB4021DF4800F0F8FB0121B6
:102EC000052000F079FA01215FF4003000F083FA68
:102ED0000420ADF8000018208DF8030003208DF8C1
:102EE000020000A9DD4800F093FA0820ADF80000C8
:102EF00004208DF8030000A9D84800F089FA00A941
:102F0000D64800F085FA4FF4165001900020ADF835
:102F100008000020ADF80A000020ADF80C000020E9
:102F2000ADF810000C20ADF80E0001A9C54800F066
:102F30000BFB012240F22551C24800F085FB012124
:102F4000C04800F073FB4021BE4800F0B0FB0121F7
:102F5000082000F031FA10208DF8030003208DF8CE
:102F600002000420ADF8000000A9BD4800F050FAAE
:102F70000121092000F020FA01215FF4802000F0F7
:102F80002AFA4FF48060ADF8000018208DF8030095
:102F900003208DF8020000A9B14800F039FA4FF47F
:102FA0000060ADF8000004208DF8030000A9AC48D3
:102FB00000F02EFA00A9AA4800F02AFA4FF41650A1
:102FC00001900020ADF808000020ADF80A000020B4
:102FD000ADF80C000020ADF810000C20ADF80E008C
:102FE00001A99B4800F0B0FA012240F2255198480F
:102FF00000F02AFB0121964800F018FB402194487C
:1030000000F055FB05B000BD80B525208DF800000F
:1030100000208DF8020001208DF8030000A800F0C8
:1030200088FB26208DF8000001208DF80200012089
:103030008DF8030000A800F07CFB27208DF800002D
:1030400002208DF8020001208DF8030000A800F096
:1030500070FB01BDF8B504000D001600002007004C
:10306000BFB2B6B2B74226D2012080F31088A08A40
:10307000ADF80000002080F31088BDF80000A189A1
:103080008842F1D2208A6168BFB27A5D4254012041
:1030900080F31088208A401C2082A18980B2884257
:1030A00001D300202082A08A401CA082002080F34F
:1030B00010887F1CD4E7012240F22771206800F0BD
:1030C000C3FAF1BD10B40200012080F31088508BC8
:1030D0000300002080F310889BB2002B01D1002058
:1030E00016E0108B9468005D0870012080F3108852
:1030F000108B401C1083D48980B2A04201D30020E1
:103100001083508B401E5083002080F310880120D4
:1031100010BC704738B5040040F22551206800F01B
:10312000CCFA00281DD0206800F0BDFA0500E08A26
:10313000A1684554E08A401CE082E18980B288425F
:1031400001D30020E082608BE189884202D2608B4B
:10315000401C6083606A002803D02800C0B2616A06
:10316000884740F22771206800F0A7FA002823D092
:10317000A08A00280CD1002240F22771206800F0BC
:1031800063FA012240F22661206800F05DFA3CE01B
:10319000608A6168415C89B2206800F080FA608AC8
:1031A000401C6082A18980B2884201D300206082E5
:1031B000A08A401EA08228E040F22661206800F02C
:1031C0007CFA002821D0A08A00280BD1002240F2EE
:1031D0002661206800F038FA206A002815D0206A9D
:1031E000804712E0608A6168415C89B2206800F023
:1031F00056FA608A401C6082A18980B2884201D35D
:1032000000206082A08A401EA08231BD80B50748A0
:10321000FFF780FF01BD80B50548FFF77BFF01BDCB
:1032200080B50448FFF776FF01BD0000EC1C0020CC
:10323000141D00203C1D002000380140A800002083
:10324000A804002000440040A8080020A80C00208A
:1032500000480040A8100020A814002000080140E9
:10326000000C014038B504000D002100C9B2002057
:10327000FFF708FD200032BD0300002013F0030F0C
:1032800009D0521E22BF13F8010B11F801CBB0EB8D
:103290000C00F3D07047121F22BF53F8040B51F8F3
:1032A00004CB6045F7D0121D0AD200BA9CFA8CFC00
:1032B000B0EB0C0038BF6FF0000088BF01207047F2
:1032C000521E22BF13F8010B11F801CBB0EB0C001A
:1032D000F6D0521C08BF10467047000030B40021E1
:1032E000002200230024434D2D6815F00C05290011
:1032F0000D00002D04D0042D05D0082D06D026E0A9
:103300003D4D056025E03C4D056022E0394D2D68BE
:1033100015F470152A00374D2D6815F480352B00F3
:10332000920C921C002B04D1344D05FB02F5056074
:103330000CE0304D2D68AD0304D5304D05FB02F592
:10334000056003E02C4D05FB02F5056001E02A4D08
:103350000560284D2D6815F0F00529000909284D54
:103360004D5D2C000568E5404560224D2D6815F443
:10337000E0652900090A224D4D5D2C004568E540B5
:1033800085601C4D2D6815F460552900C90A1C4D37
:103390004D5D2C004568E540C560164D2D6815F45F
:1033A00040452900890B174D4D5D2C00C568B5FBC4
:1033B000F4F5056130BC7047C9B2002905D0124A46
:1033C00012680243104B1A6004E00F4A12688243ED
:1033D0000D4B1A607047C9B2002905D00B4A12681C
:1033E00002430A4B1A6004E0084A12688243074B02
:1033F0001A6070470410024000127A0000093D0074
:1034000090000020A0000020181002401C10024074
:10341000F0B500270022002300240025002691F8A3
:1034200003C01CF00F0C674691F803C05FEACC6C38
:1034300003D591F802C05CEA070791F800C05FEA83
:103440000C6C3AD0D0F800C065465FF0000C6346C3
:10345000082B31D25FF0010C1CFA03FC6446B1F872
:1034600000C014EA0C0C6246A24223D15FEA830C2E
:1034700064465FF00F0C1CFA04FC6646B54317FA6D
:1034800004FC5CEA050591F803C0BCF1280F06D1E5
:103490005FF0010C1CFA03FCC0F814C00AE091F8BC
:1034A00003C0BCF1480F05D15FF0010C1CFA03FC0E
:1034B000C0F810C05B1CCBE70560B1F800C04FF44A
:1034C000807EF4453FD3D0F804C065465FF0000C21
:1034D0006346082B36D25FF0010C13F1080E1CFA7C
:1034E0000EFC6446B1F800C014EA0C0C6246A2421D
:1034F00026D15FEA830C64465FF00F0C1CFA04FCD3
:103500006646B54317FA04FC5CEA050591F803C06A
:10351000BCF1280F07D15FF0010C13F1080E1CFA63
:103520000EFCC0F814C091F803C0BCF1480F07D1DD
:103530005FF0010C13F1080E1CFA0EFCC0F810C06D
:103540005B1CC6E74560F0BD2DE9F04786B004007E
:103550000D00002600275FF000085FF000095FF013
:10356000000AA8890028A246208A06004CF6FF70AF
:103570000640E88806432682A08906004EF6F3102E
:103580000640A88829890843698908430643A6811B
:10359000A08A06004FF6FF400640A8890643A6828F
:1035A00000A8FFF79BFE2048824502D10398070040
:1035B00001E002980700A089000408D5192000FB4B
:1035C00007F029684900B0FBF1F0804607E01920B8
:1035D00000FB07F029688900B0FBF1F08046642009
:1035E000B8FBF0F0000106003009642101FB1080F7
:1035F0008146A089000409D55FEAC9003230642100
:10360000B0FBF1F010F00700064308E05FEA091094
:1036100032306421B0FBF1F010F00F000643268138
:1036200006B0BDE8F087000000380140C9B20029AB
:1036300004D0828952F40052828104E082894DF6DE
:10364000FF731A4082817047F0B4002300240025E4
:10365000002640F66A1789B2B94206000F00FFB291
:103660007F09FFB23B0089B211F01F073C00012720
:10367000A7403D00012B01D10C3604E0022B01D103
:10368000103600E01436D2B2002A03D037682F4338
:10369000376002E03768AF433760F0BC7047CA0557
:1036A000D20D828070478088C005C00D704789B2F6
:1036B0008A0589B2CA430280704770B402000023B1
:1036C00000250024002040F66A1689B2B1420E009F
:1036D000F6B27609F6B2340089B211F01F06350051
:1036E000012616FA05F5012C02D19689354006E02F
:1036F000022C02D1168A354001E0968A354089B203
:103700000E0AB6B23300012616FA03F316883340C8
:10371000002D04D0002B02D00126300001E000264D
:103720003000C0B270BC70471C4901431C4A116094
:103730007047F0B4002300210F22C478002C20D061
:10374000174C246814F4E064D4F5E064240A2300E0
:10375000D3F104042100DA4044788C4023008478BB
:10376000144023431B0104780E4D63550478641103
:103770000D4D0126077817F01F07BE4045F824605D
:1037800009E004786411094D0126077817F01F0736
:10379000BE4045F82460F0BC704700000000FA0508
:1037A0000CED00E000E400E000E100E080E100E07A
:1037B000DFF8CC03006880040BD4DFF8C80300688E
:1037C000C00706D4DFF8C0030068C00501D501209A
:1037D00000E000207047DFF8A803006880040BD5E4
:1037E000DFF8A0030068C00706D5DFF89C03006877
:1037F000C00501D5012000E000207047DFF88003FC
:10380000006880040BD5DFF87C030068C00706D48D
:10381000DFF874030068C00501D4012000E0002037
:103820007047DFF85C03006880040BD4DFF85403B2
:103830000068C00706D5DFF850030068C00501D551
:10384000012000E000207047DFF8340300688004A6
:103850000BD5DFF830030068C00706D5DFF8280372
:103860000068C00501D4012000E000207047DFF8A7
:1038700018030068000401D4012000E00020704714
:10388000DFF808030068000701D4012000E00020F1
:103890007047DFF8F4020068400401D4012000E022
:1038A00000207047DFF8E0020068800401D40120A6
:1038B00000E000207047DFF8D0020068000601D465
:1038C000012000E00020704780B500F07AF800F099
:1038D0002EF801BDDFF8B812C97ADFF8B422885497
:1038E000AB49C97A491CAA4AD172C9B20A2902D382
:1038F000A7490022CA727047A548807AA44AD27AA2
:10390000904201D1002011E0A148807AA04A805C59
:1039100001009F48807A401C9D4A9072C0B20A28DC
:1039200002D39B48002282720800C0B2704780B563
:1039300001214FF49A70FFF73FFD03208DF802003C
:1039400004208DF803004FF40050ADF8000000A9EA
:103950009148FFF75DFD0120ADF8000000A98F48F8
:10396000FFF756FD4FF48070ADF8000000A98C48B9
:10397000FFF74EFD4FF40040ADF8000000A9884865
:10398000FFF746FD0820ADF8000000A98548FFF7C5
:103990003FFD4FF48040ADF8000000A98048FFF7DC
:1039A00037FD4FF40050ADF8000000A97C48FFF748
:1039B0002FFD8020ADF8000000A97948FFF728FD11
:1039C00001BD734900228A7271490022CA7270498E
:1039D00000220A7300210800C0B20A281FD2C0B218
:1039E0006C4911EB001164220A81C0B2694911EBE4
:1039F000001102220A71C0B2664911EB00110022C7
:103A00008A72C0B2634911EB00110022CA72C0B2BF
:103A1000604911EB001100220A73401CDCE75D498C
:103A200064220A875B49052281F83B2059496422B8
:103A3000A1F848205749052281F84B2055496422B6
:103A4000A1F858205349052281F85B20514964228E
:103A5000A1F868204F49052281F86B204D49524A50
:103A60000A604C49514A0A614A49514A0A62494925
:103A7000504A0A634749504A0A6446494F4A0A6510
:103A800044494F4A0A6643494E4A0A6741494E4AE9
:103A9000C1F880203F494D4AC1F89020704738B5A1
:103AA0000400E4B23B4810EB04100500286880478E
:103AB000002845D02879052802D2052028715DE02C
:103AC00028790A2803D22879401C287156E0A87A60
:103AD000002809D10120A872E4B2032000FB04F001
:103AE000401CC0B2FFF7F6FE2889012846D3E888BB
:103AF000298988420FD2E888401CE880298980B251
:103B000088423BD1E4B2032000FB04F0C01CC0B2E9
:103B1000FFF7E0FE32E0E87A01282FD3287B401C33
:103B20002873E97AC0B2884228D300202873E4B20F
:103B3000032000FB04F0401CC0B2FFF7CBFE1DE0E9
:103B40002879062802D30520287113E02879002857
:103B500003D02879401E28710CE0A87A012809D1E9
:103B60000020A872E4B2032000FB04F0801CC0B265
:103B7000FFF7B0FE0020E8800020287331BD000070
:103B800008100140080801400820014008140140C5
:103B9000641D0020A81A0020001001400008014008
:103BA0000020014000140140B1370008D737000859
:103BB000FD3700086F380008813800089338000886
:103BC000A5380008B738000823380008493800082D
:103BD00010B500200400E4B20A2C05D22000C0B2C7
:103BE000FFF75DFF641CF6E710BD000040B200283F
:103BF00009D540B210F00F02DFF85C33D2180B0188
:103C000002F8043C04E040B2DFF850230B01835477
:103C1000704710B50400B4F1807F01D3012013E098
:103C20002002000A401EDFF8381308600F215FF001
:103C3000FF30FFF7DBFFDFF82C0300210160DFF826
:103C4000280307210160002010BD10B500200400EA
:103C5000E4B2042C21D2E4B20C20DFF8101300FBF4
:103C6000041000214160E4B20C20DFF8001300FBD7
:103C7000041000218160E4B20C20DFF8F01200FB98
:103C8000041000214170E4B20C20DFF8E01200FBC8
:103C9000041000210170641CDAE7DFF8D402006828
:103CA0004FF47A71B0FBF1F0FFF7B3FF00F0C9F801
:103CB00010BD10B5DFF8BC02006800280CD0DFF89A
:103CC000B4020068401EDFF8AC120860002803D17F
:103CD000DFF8A4020121017000200400E4B2042CEA
:103CE00009D2E4B20C20DFF8841200FB041000F0CB
:103CF00027F8641CF2E7DFF884020068401CDFF854
:103D00007C120860DFF8740200687FF0004188428E
:103D100003D1DFF868020021016000F055F9DFF8F7
:103D200060020078401CDFF858120870C0B20A2800
:103D300005D3DFF84C020021017000F041F910BDFD
:103D4000416800290BD04168491E4160002906D115
:103D5000012141700178012901D1816841607047DA
:103D600038B504000D00E4B2042C05D3884A864916
:103D7000864800F02BF9FEE7012080F31088E4B2BA
:103D80000C207A4900FB04104560E4B20C2077490E
:103D900000FB04108560E4B20C20744900FB0410A1
:103DA00000214170E4B20C20704900FB0410012195
:103DB0000170002080F3108831BD10B50400E4B21A
:103DC000042C05D3734A7049704800F0FFF8FEE7F1
:103DD000012080F31088E4B20C20644900FB041039
:103DE00000214160E4B20C20604900FB0410002176
:103DF0004170E4B20C205D4900FB04100021017009
:103E0000002080F3108810BD0100C9B2042901D33D
:103E1000002011E0C9B20C20544A00FB0120407878
:103E2000012808D1C9B20C20504A00FB0120002211
:103E30004270012000E00020704780B5FFF739FF95
:103E400001BD7FB501210120FFF7C5FA4848006890
:103E5000400806004B48B6FBF0F005004FF6FF7037
:103E600004002000ADF80800ADF804500020ADF8C3
:103E70000A000020ADF8060001A95FF0804000F0C4
:103E8000B7F801215FF0804000F0FCF81C208DF8AD
:103E9000000004208DF8010000208DF802000120B0
:103EA0008DF8030000A8FFF744FC7FBD80B5022118
:103EB0005FF0804000F0FFF800280DD002215FF095
:103EC000804000F011F9002202215FF0804000F0F4
:103ED000E7F831480068804704215FF0804000F037
:103EE000EAF800280DD004215FF0804000F0FCF8D3
:103EF000002204215FF0804000F0D2F827480068DB
:103F0000804708215FF0804000F0D5F800280DD0F0
:103F100008215FF0804000F0E7F8002208215FF000
:103F2000804000F0BDF81E480068804710215FF017
:103F3000804000F0C0F800280DD010215FF08040D4
:103F400000F0D2F8002210215FF0804000F0A8F8C5
:103F500014480068804701BD18ED00E000E400E06F
:103F600014E000E018E000E010E000E0BC1C0020DD
:103F7000A40000207C1D00209B1D0020801D00202F
:103F80009C1D002040420F002846000858480008A9
:103F900098490008384A0008841D0020881D002028
:103FA0008C1D0020901D002080B54FF44070FFF75D
:103FB000BBFBFEF729FEFFF787FCFFF746FE01BDBE
:103FC00080B5FFF705FE01BD704770470EB400B520
:103FD00082B003A9009100AB024601210348784456
:103FE0000A30FCF7A5F806BC5DF810FB8909000053
:103FF000002203881A00DFF8F830984212D0DFF868
:10400000083198420ED0B0F1804F0BD0DFF8E43089
:10401000984207D0DFF8E030984203D0DFF8DC3078
:10402000984204D14FF68F731A404B881A43DFF839
:10403000D030984208D0DFF8CC30984204D04FF608
:10404000FF431A40CB881A4302808B8883850B88F4
:104050000385DFF89C3098420FD0DFF8AC309842EF
:104060000BD0DFF8A830984207D0DFF8A430984290
:1040700003D0DFF8A030984201D10B7A03860123E8
:1040800083827047C9B2002904D0028852F001022D
:10409000028004E002884FF6FE731A4002807047E7
:1040A000D2B2002A03D083890B43838102E0838943
:1040B0008B438381704730B402000020002300242A
:1040C000158A0D402B0095890D402C009BB2002BCA
:1040D00005D0A4B2002C02D00125280001E0002563
:1040E0002800C0B230BC704789B2CA430282704710
:1040F000002C01400004004000080040000C00407B
:104100000010004000140040003401400040014015
:10411000004401400048014038B50124FFF744FF46
:1041200000F057F9FFF751FFE4B2012C0BD100A9C1
:104130000120FEF7B0FD00280ED09DF800100020F1
:10414000FEF7A0FD08E0FDF7A3FF0020FFF75CFEEF
:10415000002801D000F022F8FFF7CEFB0500EDB2F9
:10416000002DDFD0EDB22800012802D0042809D0AC
:1041700013E0B248FFF72AFF012004000020FFF7F8
:104180001CFECFE7AE48FFF721FF002004004FF4EC
:104190007A710020FFF7E4FDC4E7C3E710B5A4B0CF
:1041A000A84890F85400532837D1A648006DFEF770
:1041B00001FDA449096D42F210720290A148B0F8C5
:1041C0004E000190B1FBF2F002FB101000909D48F0
:1041D000006D42F21071B0FBF1F39A48B0F84E2036
:1041E000994903A800F05AF99648006DFEF7EBFCD8
:1041F000040003A8FDF734F8A4B200949149096DB6
:1042000042F21072B1FBF2F38E49B1F84E208F49A1
:1042100003AC001900F042F936E08A48006DFEF761
:10422000C9FC8849096D42F2107202908548B0F8C5
:104230004E000190B1FBF2F002FB1010009081489B
:10424000006D42F21071B0FBF1F37E48B0F84E20E1
:104250007F4903A800F022F97A48006DFEF7B3FC0D
:10426000040003A8FCF7FCFFA4B200947549096D93
:1042700042F21072B1FBF2F37249B1F84E20734969
:1042800003AC001900F00AF903A8FFF79FFE6D4880
:1042900090F85C00452837D16A48806DFEF78AFCAB
:1042A0006849896D42F2107202906648B0F8560073
:1042B0000190B1FBF2F002FB101000906148806D9C
:1042C00042F21071B0FBF1F35E48B0F8562061493C
:1042D00003A800F0E3F85B48806DFEF774FC04006F
:1042E00003A8FCF7BDFFA4B200945649096D42F241
:1042F0001072B1FBF2F35349B1F85620564903ACA2
:10430000001900F0CBF836E04E48806DFEF752FC05
:104310004C49896D42F2107202904A48B0F856003A
:104320000190B1FBF2F002FB101000904548806D47
:1043300042F21071B0FBF1F34248B0F85620474901
:1043400003A800F0ABF83F48806DFEF73CFC04008A
:1043500003A8FCF785FFA4B200943A49896D42F2A4
:104360001072B1FBF2F33749B1F856203A4903AC69
:10437000001900F093F803A8FFF728FE3148406FBA
:104380000A21B0FBF1F201FB12032E48406F0A2113
:10439000B0FBF1F2324903A800F080F803A8FFF760
:1043A00015FE284840680A21B0FBF1F201FB120318
:1043B000244840680A21B0FBF1F22A4903A800F022
:1043C0006DF803A8FFF702FE19A0FFF7FFFD24B068
:1043D00010BD80B517A0FFF7F9FD2348FFF7F6FDE4
:1043E00022492348FFF7F2FD13A12248FFF7EEFD13
:1043F00021492248FFF7EAFD012306220321204834
:10440000FFF7E4FD1F48FFF7E1FD1F48FFF7DEFD62
:104410001E48FFF7DBFD1E48FFF7D8FD1D48FFF7DC
:10442000D5FD1D48FFF7D2FD0F48FFF7CFFD01BDB9
:104430000D0000000A0D0000312E3200D0480008A7
:1044400098480008481B0020A4470008AC49000811
:10445000C8470008EC470008C04900081048000899
:10446000E8480008D4490008A446000800490008AC
:10447000E8490008FC490008584A0008104A0008AA
:10448000E4460008A04A000818490008244A000829
:10449000B4480008784800087C4700080CB41CB5F4
:1044A000044604A80190009401AB0A4600A90748FD
:1044B00078441830FBF73CFE009900220A7000286F
:1044C0005CBF0098001B16BC5DF80CFBCBCDFFFF5A
:1044D00080B54E48006850F001004C4908604C48D7
:1044E00000684C4908404A490860484800684A4901
:1044F0000840464908604548006830F48020434938
:1045000008604348006830F4FE00414908604348B1
:104510005FF41F01016000F005F841485FF00061A1
:10452000016001BD80B500F001F801BD82B000203E
:104530000190002000903548006850F480303349E5
:1045400008603248006810F4003000900198401C68
:1045500001900098002803D10198B0F5A06FF0D128
:104560002A480068800302D50120009001E0002065
:1045700000900098012847D12A48006850F01000A8
:10458000284908602748006880088000254908609D
:104590002448006850F00200224908601C481C4969
:1045A000096801601A481A490968016018480068DA
:1045B00050F48060164908601548006830F47C109B
:1045C000134908601248006850F4E8101049086068
:1045D0000E48006850F080700C4908600B48006875
:1045E0008001FBD50A4800688008800008490860FF
:1045F0000748006850F00200054908600448006858
:1046000010F00C000828F9D102B0704700100240E9
:10461000041002400000FFF8FFFFF6FE0810024001
:1046200008ED00E000200240453A5C30312EB9A48C
:10463000D7F7CEC4BCFEBCD05C30312ED7CAC1CFB8
:104640005C53544D33322D56345C56342D31313653
:104650005F475053C4A3BFE9B2E2CAD4C0FDB3CC94
:10466000A3A8B4FDB2E2CAD4A3A95C56342D31315B
:10467000335F424D50303835C6F8D1B9C7BFB6C8E0
:10468000B4ABB8D0C6F7C0FDB3CC5C557365725CF3
:104690006273705C7372635C6273705F74696D6582
:1046A000722E63002A2A2A2A2A2A2A2A2A2A2A2A0F
:1046B0002A2A2A2A2A2A2A2A2A2A2A2A2A2A2A2A5A
:1046C0002A2A2A2A2A2A2A2A2A2A2A2A2A2A2A2A4A
:1046D0002A2A2A2A2A2A2A2A2A2A2A2A2A2A2A2A3A
:1046E0002A0A0D002A20B9CCBCFEBFE2B0E6B1BE5A
:1046F000203A205625642E25642E25642028535404
:104700004D3332463130785F53746450657269704E
:10471000685F447269766572290D0A00704708491E
:1047200009684FF480725140054A11600021080069
:1047300042F2107180B28842F1D2401CF8E70000CA
:104740000C080140FEE7FEE7FEE770477047704740
:1047500010B5084979441C31074C7C441A34A142F5
:1047600006D0081D0A68511888470146A142F8D1B1
:1047700010BD00BFC0000000E00000002A20436F11
:1047800070797269676874207777772E61726D66C9
:104790006C792E636F6D20B0B2B8BBC0B3B5E7D7EC
:1047A000D30D0A00C4CFCEB32025303264A1E32557
:1047B0003032642E25303464273D253032642E2576
:1047C000303664A1E3000000B1B1CEB32025303211
:1047D00064A1E3253032642E25303464273D253032
:1047E00032642E25303664A1E30000002020B6ABF1
:1047F000BEAD2025303364A1E3253032642E253050
:104800003464273D253033642E25303664A1E3001F
:104810002020CEF7BEAD2025303364A1E325303211
:10482000642E25303464273D253033642E25303600
:1048300064A1E3000BCAFFFFF81C0000A8000020E1
:1048400000000000B7C9FFFFA800000070030000CF
:1048500000000020000000004572726F723A20666E
:10486000696C652025732C2066756E6374696F6EA4
:1048700020257328290D0A002A20CCD4B1A6B5EA38
:104880003A2061726D666C792E74616F62616F2E71
:10489000636F6D0D0A0000000D0ABDF8C8EBBDE2A4
:1048A000CEF6CAFDBEDDB0FCC4A3CABD2E2E2E0DB1
:1048B0000A0000002A20456D61696C203A2061726F
:1048C0006D666C794071712E636F6D200D0A00006A
:1048D0000D0ABDF8C8EBD7D4B6AFD7AAB7A2C4A308
:1048E000CABD2E2E2E0D0A002020CBD9B6C8203DE1
:1048F000202535642E2564204B4D2F6800000000D4
:1049000056352D3131365F475053C4A3BFE9B2E26B
:10491000CAD4C0FDB3CC00002A2051512020202051
:104920003A2031323935373434363330200D0A00ED
:1049300000F009F8002801D0FFF70AFF0020FFF778
:10494000EBFB00F002F80120704700F001B8000016
:104950000746FDF78BFA384600F002F8FBE7000047
:1049600080B5C046C046024A11001820ABBEFBE726
:104970002600020038B504460D46284600F006F829
:10498000A84218BF0024204632BD00000149FEF7AE
:1049900069BC00BF500000206273705F5374617285
:1049A000744175746F54696D657200003D25303235
:1049B00064A1E325303264272530326422000000F0
:1049C0003D25303364A1E32530326427253032643D
:1049D000220000002020BAA3B0CE203D202535645F
:1049E0002E2564204D0000002A20C0FDB3CCC3FB5F
:1049F000B3C62020203A2025730D0A002A20C0FDCE
:104A0000B3CCB0E6B1BE2020203A2025730D0A00B9
:104A10002A20B7A2B2BCC8D5C6DA2020203A202569
:104A2000730D0A002A20CDFACDFA20203A206172B7
:104A30006D666C790D0A00006273705F53746F705D
:104A400054696D65720000000148804701480047C5
:104A5000D1440008654A0008323031342D30322DFF
:104A600032380000C046C046C046C046FFF760FF6F
:104A700047504747412C000047504753412C000006
:104A800047504753562C00004750524D432C0000CE
:104A900047505654472C00004750474C4C2C0000C0
:104AA0002A200A0D00000000FFF738BEFFF737BECE
:104AB000FFF748BEFFF747BEFFF746BEFFF745BE0C
:104AC000FFF744BEFFF743BEFFF7B7B9FFF7FEBFDE
:104AD000FFF7FEBFFFF7FEBFFFF7FEBFFFF7FEBF0A
:104AE000FFF7FEBFFFF7FEBFFFF7FEBFFFF7FEBFFA
:104AF000FFF7FEBFFFF7FEBFFFF7FEBFFFF7FEBFEA
:104B0000FFF7FEBFFFF7FEBFFFF7FEBFFFF7FEBFD9
:104B1000FFF7FEBFFFF7FEBFFFF7FEBFFFF7FEBFC9
:104B2000FFF7FEBFFFF7FEBFFFF7FEBFFFF7FEBFB9
:104B3000FFF7FEBFFFF7FEBFFFF7FEBFFFF7B6B9F7
:104B4000FFF7FEBFFFF7FEBFFFF7FEBFFFF7FEBF99
:104B5000FFF7FEBFFFF7FEBFFFF7FEBFFFF7FEBF89
:104B6000FEF754BBFEF757BBFEF75ABBFFF7FEBF7D
:104B7000FFF7FEBFFFF7FEBFFFF7FEBFFFF7FEBF69
:104B8000FFF7FEBFFFF7FEBFFFF7FEBFFFF7FEBF59
:104B9000FFF7FEBFFFF7FEBFFFF7FEBFFFF7FEBF49
:104BA000FFF7FEBFFFF7FEBFFFF7FEBFFFF7FEBF39
:104BB000FFF7FEBFFFF7FEBFFFF7FEBF00000000DC
:104BC00000000000000000000000000000000000E5
:104BD0000000000000000000FFFFFFFFFFFFFFFFDD
:104BE00000000000000000000000000000000000C5
:104BF00000000000000000000000000000000000B5
:104C000000000000FFFFFFFFFFFF000002040101A2
:104C1000341C0020841C0020341C0020341C002084
:104C2000341C00208D0000207400002000000000D3
:104C30000000000000000000000000000000000074
:104C40000000000000000000000000000000000064
:104C5000010203040102030406070809020406080E
:044C600000A24A0460
:0400000508004A6540
:00000001FF
