:020000040800F2
:10000000E84E00205D010008CB150008D112000861
:10001000C91500089D0E0008C91F00080000000057
:100020000000000000000000000000003918000877
:100030001D0F00080000000045160008051B000801
:1000400077010008770100087701000877010008B0
:1000500077010008770100087701000877010008A0
:100060007701000877010008770100087701000890
:100070007701000877010008770100087701000880
:100080007701000877010008770100087701000870
:100090007701000877010008770100087701000860
:1000A0007701000877010008770100087701000850
:1000B000D11B0008770100087701000877010008CC
:1000C0007701000877010008770100087701000830
:1000D00077010008451D0008511D00087701000840
:1000E0007701000877010008770100087701000810
:1000F0007701000877010008770100087701000800
:1001000077010008770100087701000877010008EF
:1001100077010008770100087701000877010008DF
:1001200077010008770100087701000877010008CF
:10013000DFF80CD000F040FB004800470535000810
:10014000E84E00204FF0010000BF80F31388014803
:10015000014901600CED00E00400FA050648804703
:1001600006480047FEE7FEE7FEE7FEE7FEE7FEE79C
:10017000FEE7FEE7FEE7FEE7811B0008310100080D
:1001800040EA01039B0703D009E008C9121F08C019
:10019000042AFAD203E011F8013B00F8013B521E99
:1001A000F9D27047D2B201E000F8012B491EFBD210
:1001B00070470022F6E710B513460A460446194672
:1001C000FFF7F0FF204610BDCAB2401E10F8011F15
:1001D0008A4202D00029F9D100207047421C10F851
:1001E000011B0029FBD1801A704730B5044600205E
:1001F000034600E05B1C934203D2E05CCD5C401BF5
:10020000F8D030BD2DE9FE4F804681EA0300C00FD3
:100210000C46009021F0004123F00045B8EB0200AD
:10022000A94105D24046214690461C460B4602464F
:1002300023F00040104347D0270DC7F30A00C3F353
:100240000A510290401A019040286BDAC3F3130060
:1002500040F4801B0098924620B10023D2EB030AA1
:1002600063EB0B0B01985946C0F14002504600F079
:1002700033F906460D4650465946019A00F03BF9BF
:1002800010EB08006141002487EA115284EAE77309
:100290001A4340D0009A62B3019A012A4FEA0752EA
:1002A00015DC001B61EB02014FF0004202EA07522D
:1002B000CDE90042001C41F5801132462B4600F08A
:1002C0008AF903B0BDE8F08F40462146F9E7001BEC
:1002D00061EB0201001C41F5801300185B412018FE
:1002E000A2F5001747EB030140EAD570B6196D413E
:1002F00011E06D084FEA360645EAC0754FEA07522D
:10030000001B61EB0201001C41F5801149084FEA16
:1003100030000019514132462B4603B0BDE8F04F82
:1003200000F04AB90098012240000023D0EB0202FD
:1003300063EBE073009821464FEAE074B8EB0000ED
:1003400061EB0401E9E783F000435BE781F00041E2
:1003500058E72DE9F04D81EA030404F0004B21F049
:10036000004514464FF0000A23F0004150EA050210
:1003700020D054EA01021DD0C5F30A570246C5F346
:100380001303C1F31300C1F30A5640F4801543F47C
:100390008013A7EB0608101BD64608F2FD3873EB56
:1003A000050002D308F1010801E092185B41B8F1A1
:1003B000000F03DA00200146BDE8F08D00204FF465
:1003C0008011064684460EE0171B73EB050705D324
:1003D000121B63EB050306434CEA010C49084FEA84
:1003E000300092185B4150EA0107EDD152EA030058
:1003F00012D082EA040083EA0501084305D0101BED
:10040000AB4106D20122002306E000224FF0004358
:1004100002E06FF0010253101AEB06004CEB08519A
:1004200010EB0A0041EB0B01BDE8F04D00F0C4B841
:100430000EB540F2334102910021CDE900110A4688
:100440000B4600F0C8F803B000BD30B50B460146BE
:1004500000202022012409E021FA02F59D4205D363
:1004600003FA02F5491B04FA02F52844151EA2F10D
:100470000102F1DC30BD2DE9F05F05460020924617
:100480009B4688460646814640241BE02846414656
:100490004746224600F0A2F953465A46C01A9141F7
:1004A00010D311461846224600F016F82D1A67EBB5
:1004B00001084F4622460120002100F00DF817EBFD
:1004C00000094E41201EA4F10104DFDC48463146FC
:1004D0002A464346BDE8F09F202A04DB203A00FA72
:1004E00002F1002070479140C2F1200320FA03F38B
:1004F000194390407047202A06DBCB17203A41FA77
:1005000002F043EAE07306E041FA02F3D040C2F1A0
:100510002002914008431946704700000FB40023A1
:1005200000B589B00CA900910B996FF00042CB6027
:100530001E4B06931E4B07930423CDE901321D4A3F
:10054000089202466B46002000F0F2F909B05DF80F
:1005500014FB70B586B006464FF0FF300091CDE930
:100560000101002015460C4604903246694604A855
:10057000FFF7D4FF02460498211825B108B10846B8
:1005800000E020462860049800280DD0002A02DDF3
:100590000098884208D0081B0094CDE90104324637
:1005A000694604A8FFF7BAFF06B070BD690B0008E2
:1005B000870B0008FD07000810B5141E73F1000436
:1005C00008DA401C41F1000192185B411A4301D145
:1005D00020F0010010BD2DE9F04D92469B4611B16F
:1005E000B1FA81F202E0B0FA80F220329046FFF7D1
:1005F00073FF04460F4640EA0A0041EA0B015346E6
:100600005A46084313D0114653EA010019D0C8F1E5
:100610004002504600F0E2F805460E465046594664
:100620004246FFF759FF084305D0012004E0204669
:100630003946BDE8F08D0020054346EAE0762C43BC
:1006400037430A986305E40AA0EB08000022FD0A7C
:1006500044EA47540A3002D500200146E9E7010583
:1006600010196941DDE9084500196941BDE8F04DFF
:10067000A2E72DE9FE4F81EA030404F0004421F0D3
:10068000004100944FF0000B23F0004350EA0104B6
:100690005ED052EA03045BD0C3F30A54C1F30A5597
:1006A0002C44A4F2F3340194A0FB0254C1F31301CF
:1006B00041F48011C3F3130343F4801301FB02449C
:1006C00000FB034E840A970A44EA815447EA8357A1
:1006D000A4FB076802958D0A05FB07854FEA932C5A
:1006E00004FB0C542705029D4FEA065847EA1637CB
:1006F000B5EB08056EEB070C870E920E47EA8117E3
:1007000042EA8312A7FB0201B6EB0B0164EB000483
:100710002B0D43EA0C335E1844EB1C50DA4651466D
:10072000E7FB0201C5F313044FEA0B3343EA14530A
:100730004FEA0432019C43EA0603A4F10C0402943C
:10074000009CCDE900B4FFF746FF03B0BDE8F08F91
:1007500000200146F9E7C1F30A52C1F3130140F248
:10076000FF3341F480119A4202DA002001467047BB
:1007700040F233439A42A2F2334202DC524200F08A
:100780002DB8FFF7A9BE000030B5041E71F10004BA
:1007900004DB4FF00044404264EB0101141E73F18E
:1007A000000405DB1C464FF00043524263EB040398
:1007B000994208BF904230BD064C074D06E0E06804
:1007C00040F0010394E8070098471034AC42F6D398
:1007D000FFF7B2FCB0370008D0370008202A04DB4E
:1007E000203A21FA02F00021704721FA02F3D040AA
:1007F000C2F120029140084319467047C0B24FF43D
:10080000F05100F0D1B900002DE9FF4F087883B016
:100810009946FF2805D0491C2D2804D0002400202B
:1008200008E000200BE00124F9E700EB800003EB77
:100830004000491C0B78FF2BF7D104B14042002344
:100840000293147819461D462D2C01D02B2C04D16F
:10085000521C2D2C13D000240294AA461478FF2C8D
:100860000FD00A25A3FB057801FB05814FF0000C92
:1008700003FB0C11521CE3194AEB0101EEE70124C2
:10088000EAE7814453EA010002D019F5C87F06DA8D
:1008900003980021C0E9001107B0BDE8F08F0025E2
:1008A000AE4E2F46DFF8B882184600F091F9CDE938
:1008B0000001B9F1000002DAC9F1000400E00446C9
:1008C0000023A74A1AEB030B42EB045A12E0E0079D
:1008D00007D02A46334638464146FFF7CAFE074648
:1008E00088462A46334610461946FFF7C2FE05469B
:1008F0000E466410002CEAD1DDE90001B9F1000FC9
:100900005A46534606DAFFF724FD3A464346FFF7B8
:1009100020FD05E0FFF7ADFE3A464346FFF7A9FE8E
:10092000029A0AB181F00041039AC2E90001B3E7DB
:100930002DE9FF4F1F468DB0D7E901464FF0FF3834
:100940002E2045464FF000090B90B9696D1C0E989A
:100950008847396A824688470028F6D1BAF1FF3FB6
:100960000AD024F4D064002E11DDBAF12B0F08D088
:10097000BAF12D0F0BD102E0404611B08DE744F4DF
:100980008064B9696D1C0E9888478246761E694658
:10099000600501D52D2000E02B208DF8000001F12D
:1009A000010B0DF1200809E0B9696D1C0E9888470C
:1009B00082460F9844F40074761E0560002E02DD16
:1009C000BAF1300FF0D00B998A453ED144F0800443
:1009D00006E00F99681CA9F1010944F4007408604D
:1009E000B9696D1C761E0E98884782463028F0D073
:1009F0002BE00B998A4505D1200603D444F08004EE
:100A0000761E18E0504601F0E3FB08B30DF1130128
:100A1000761E44F400748B4508D2AAF130000BF81E
:100A2000010B200607D5A9F1010003E0200602D43E
:100A300009F101008146A00502D50F99681C0860E4
:100A4000B9696D1C0E9888478246002ED1DC53E0B0
:100A5000002E51DDBAF1650F02D0BAF1450F4BD12E
:100A6000A00549D5B9696D1C24F44074761E0E9812
:100A700088478246002E0CDD2B2804D0BAF12D0FBA
:100A800007D144F48074B9696D1C0E98884782467A
:100A9000761EE00501D52D2100E02B2108F8011B71
:100AA000CDF82C8021E00DF12901761E44F400746C
:100AB00088450CD2AAF1300010F0FF0088F8000041
:100AC00002D10B99884509D908F1010806E0E00533
:100AD00001D5244801E042F20F708146B9696D1CCE
:100AE0000E98884782460F980560002E04DD504618
:100AF00001F06EFB0028D6D1F9690E988847FF20D7
:100B00008BF8000088F800000020069007904B4604
:100B10006A4608A906A8FFF777FEA00502D46FF081
:100B200001002AE714F0240F0AD0E00714D1DDE910
:100B300006123868031D3B600068C0E900120BE034
:100B4000DDE9060100F050F80146E00704D13868FD
:100B5000021D3A600068016028460EE7000014405C
:100B60000000F03FF1D8FFFF426842B1016811F880
:100B7000013B23B1521EC0E9001218467047012103
:100B8000C160881E704742685AB1C368016843B9A2
:100B900083688B4205D0491E521CC0E90012002018
:100BA00070474FF0FF3070477F2801D9002208E0DE
:100BB000064A02EB5002C007127800D1120902F077
:100BC0000F0201209040084070470000B83600082E
:100BD0000EB540F2334202920022CDE900221346C4
:100BE000FFF7F9FC03B000BD01F0004330B421F081
:100BF000004150EA010206D00A0DA2F56072C1F36D
:100C00001301002A02DC30BC00207047440F44EA84
:100C1000C104C100E01830BC00EBC250AFF300804B
:100C20000029A8BF7047401C490008BF20F0010000
:100C3000704710B4B0FA80FC00FA0CF050EA0104DE
:100C400004BF10BC704749B1CCF1200421FA04F470
:100C500011FA0CF118BF012121430843A3EB0C0149
:100C6000CB1D4FEA00614FEA102042BF002010BCAC
:100C7000704700EBC35010440029A4BF10BC70475C
:100C8000401C490008BF20F0010010BC7047000064
:100C900070B500F04DFA002820D04FF4FA6214A18C
:100CA00014A000F07EF8C8B141F288352A4615A19B
:100CB00018A000F076F800242A460DA119A000F033
:100CC00070F8002813D12A461AA116A000F069F87E
:100CD00000280CD1641CE4B20A2CEDD318A001F05A
:100CE00075F91FA001F072F9FFF72CFAF6E770BD55
:100CF0004F4B000041542B414D474E5353433D3120
:100D000000000000446F776E6C6F61642045504FA7
:100D1000206F6B0041542B414D474E535345504F6C
:100D20003D31000041542B414D4745504F4149440E
:100D3000000000002B434D45204552524F52000009
:100D400020414D32314520526573706F6E736520BE
:100D50006661696C7572652020200A200000000021
:100D600020414D3231452073797374656D20526591
:100D700073776574202E2E2E2020200D0A2000006F
:100D800010B500F04FFA42F21071032001F0D4FFC9
:100D9000032001F0D7FD0028FAD0BDE8104002F092
:100DA00077BB70B515460E4600F03CFA0024294684
:100DB000304600F04DFA08B1012070BD641C0020DF
:100DC000E4B2052CF3D370BD70B50C46054600F0B7
:100DD00066F8012848D1062224A12846FFF705FA23
:100DE00020B3062223A12846FFF7FFF920B30622ED
:100DF00022A12846FFF7F9F920B3062221A12846AF
:100E0000FFF7F3F920B3062220A12846FFF7EDF9FA
:100E100020B306221FA12846FFF7E7F9002823D1B7
:100E200021462846BDE8704002F010B92146284608
:100E3000BDE8704002F062B821462846BDE8704027
:100E400002F07EB921462846BDE8704002F0C0B9E4
:100E500021462846BDE8704002F01ABA21462846CD
:100E6000BDE8704002F0CEBA70BD0000474E474763
:100E7000412C000047504753412C00004750475336
:100E8000562C0000474E524D432C0000474E5654FE
:100E9000472C0000474E474C4C2C0000FEE77CB529
:100EA000032929D3441814F8032C2A2A24D1002218
:100EB000C91E05E0835C1D061ED4EBB1521C92B224
:100EC0008A42F7DB02788DF80020012207E0835C7C
:100ED0009DF800506B40521C8DF8003092B28A424F
:100EE000F5DB022201A9684600F026FAA01E0222C4
:100EF00001A9FFF77AF908B100207CBD01207CBD73
:100F000018B1012803D000207047024870470248FA
:100F1000704700001C020020440A002070470000B7
:100F20002DE9F0414F4C504EE0B0206DB0FBF6F192
:100F3000B0FBF6F206FB11034CA120A801F056F815
:100F400020A801F0E9FCDFF8308100224346FFF7DA
:100F500000FA07460D46B4F84E00FFF769FA3A4624
:100F60002B46FFF74FF902460B4644A1684601F0B5
:100F70003DF86846FFF732F9414D02466946E86898
:100F8000FFF7FEF820A8FFF729F9014620A8FFF790
:100F900010F96846FFF722F901466846FFF709F99C
:100FA000A06DB0FBF6F1B0FBF6F206FB11032FA12A
:100FB00020A801F01BF820A801F0AEFC0022434657
:100FC000FFF7C7F907460E46B4F85600FFF730FAA8
:100FD0003A463346FFF716F902460B4627A1684604
:100FE00001F004F86846FFF7F9F8024669462869F7
:100FF000FFF7C6F820A8FFF7F1F8014620A8FFF791
:10100000D8F86846FFF7EAF801466846FFF7D1F8D6
:10101000606F0A26B0FBF6F1B0FBF6F206FB110397
:1010200018A140A800F0E2FF40A8FFF7D7F8024659
:1010300040A96869FFF7A4F86068B0FBF6F1B0FB5F
:10104000F6F206FB11030FA140A800F0CFFF40A865
:10105000FFF7C4F8024640A9A869FFF791F860B00D
:10106000BDE8F0816C160020A086010025303264B6
:101070002E2530356400000000004E40256C6600CF
:10108000600000202535642E25640000F0B5CA7884
:10109000002502F00F03D20601D58A7813430A789F
:1010A0004FF00F0E12F0FF0F4FF001021CD004683A
:1010B0000F8802FA05F63740B74211D14FEA850C86
:1010C0000EFA0CF724EA070703FA0CF43C43CF7836
:1010D000282F02D0482F02D002E0466100E00661CE
:1010E0006D1C082DE4D304600C88FF2C1ED94468C5
:1010F0005FF0000606F1080702FA07F50F882F4097
:10110000AF420FD14FEA860C0EFA0CF7BC4303FA3C
:101110000CF73C43CF78282F00D14561CF78482F7A
:1011200000D10561761C082EE4D34460F0BD0000B8
:101130002DE9F041002441F28836314624A000F028
:1011400087F818B9641CE4B2142CF6D300244FF4C9
:101150007A7721A000F066F8394620A000F078F8F0
:1011600018B9641CE4B2052CF3D300253C461CA03E
:1011700000F058F821461CA000F06AF818B96D1C60
:10118000EDB2052DF3D3002519A000F04BF8314640
:101190001AA000F05DF818B96D1CEDB20A2DF3D35A
:1011A0000025264619A000F03DF831460BA000F0BE
:1011B0004FF808B1012404E06D1C0024EDB2052DA8
:1011C000F0D3012001F0F6FD2046BDE8F0810000DB
:1011D0002B43545A563A0000415400004F4B000034
:1011E00041542B43535100002B4353513A200000EC
:1011F00041542B43455245473F0000002B43455285
:1012000045473A20312C20310000000041542B4347
:10121000474143543D312C3100000000014600207D
:1012200001F035BE10B50446012001F0C3FD204693
:10123000FEF7D4FF82B22146012001F0EBFD01222E
:10124000BDE8104001A1104601F0E4BD0D00000012
:10125000F0B5C1B00E4607460024FEF7BFFF0546B5
:10126000FF280CD876B13146032001F065FD00BFA0
:1012700001F0D0FB46B1032001F064FB20B1002057
:1012800041B0F0BD01F0C6FB40A9012001F09CFD7A
:101290000028EDD09DF80001FFF7C0FF9DF8000188
:1012A0000A2808D0FF2CE3D82028E1D30DF8040049
:1012B000641CA4B2DCE7002CDAD02A463946684622
:1012C000FEF793FF08B10024D2E70120D8E7000021
:1012D000174B00200BA11A1F0C5C1C80148864069D
:1012E000FCD5401CC0B22A28F6D3124942F2107233
:1012F000086880F4807008600020401C80B2904232
:10130000FBD3F5E70D0A456E74657220486172647F
:101310004661756C745F48616E646C65722C205315
:10132000797374656D2048616C742E0D0A0000009D
:10133000043801400C08014030B500240FE0037868
:10134000E50706D003F00F03401C0A2B03D230330D
:1013500002E01B09F9E737330B55641CE4B29442F1
:10136000EDD30020085530BD2DE9F04F85B00121A7
:10137000052000F00DFA0121880300F009FA4FF46E
:101380000070ADF8100018268DF8136003278DF853
:10139000127004A93948FFF779FE4FF48060ADF868
:1013A000100004258DF8135004A93448FFF76EFE91
:1013B0000024DFF8CCA04FF41658ADF80440ADF887
:1013C00008404FF00C09CDF80080ADF80640ADF8AC
:1013D0000C40ADF80A906946504600F003FD40F21B
:1013E000255B01225946504600F0E4FC012150469D
:1013F00000F0B7FC4021504600F0B0FC0121052070
:1014000000F0C6F90121480400F0B6F9ADF810501B
:101410008DF813608DF8127004A91848FFF736FE96
:101420000820ADF810008DF8135004A91348FFF7F9
:101430002DFE04A91148FFF729FEADF80440ADF8D0
:101440000640ADF80840ADF80C400E4CCDF80080D9
:10145000ADF80A906946204600F0C4FC01225946C6
:10146000204600F0A7FC0121204600F07AFC402134
:10147000204600F073FC05B0BDE8F08F0008014085
:10148000003801400044004007488068800409D4C7
:1014900006480068C00705D105488068C00501D529
:1014A00001207047002070470010014008080140EB
:1014B0000020014007488068800409D5064800687C
:1014C000C00705D005488068C00501D401207047D9
:1014D0000020704700100140080801400020014032
:1014E00007488068800409D506480068C00705D011
:1014F00005488068C00501D501207047002070476D
:1015000000100140080801400020014007488068A1
:10151000800409D506480068C00705D105488068E1
:10152000C00501D401207047002070470010014021
:10153000080801400020014003488068000401D4ED
:1015400001207047002070470020014003480068D8
:10155000000701D4012070470020704708140140A3
:1015600003488068400401D4012070470020704780
:101570000020014003488068800401D401207047A6
:10158000002070470020014003488068000601D415
:101590000120704700207047002001400748806804
:1015A000800409D406480068C00705D00548806853
:1015B000C00501D501207047002070470010014090
:1015C0000808014000200140FEE7704770B50F2376
:1015D000C47801780122F4B1144C2468457804F4ED
:1015E000E064C4F5E064240AC4F10406E3408478AE
:1015F000B5401C402C4301F1E021230181F8003467
:10160000007800F01F018A404009800000F1E020CE
:10161000C0F8002170BD01F01F0082404809800021
:1016200000F1E020C0F8802170BD00000CED00E06A
:101630000249084302490860704700000000FA05AB
:101640000CED00E07047000010B50EA000F0BEFCED
:101650000DA000F0BBFC1CA11EA000F0B7FC24A153
:1016600024A000F0B3FC2AA12CA000F0AFFC0123C1
:101670000622032130A000F0A9FCBDE8104002A022
:1016800000F0A4BC0A0D00002A2A2A2A2A2A2A2AA3
:101690002A2A2A2A2A2A2A2A2A2A2A2A2A2A2A2AAA
:1016A0002A2A2A2A2A2A2A2A2A2A2A2A2A2A2A2A9A
:1016B0002A2A2A2A2A2A2A2A2A2A2A2A2A2A2A2A8A
:1016C0002A2A2A2A2A0D0A00475053207465737467
:1016D000000000002A20526F7574696E65206E61EB
:1016E0006D65202020203A2025730D0A000000009F
:1016F000312E30002A20526F7574696E6520766530
:101700007273696F6E203A2025730D0A0000000085
:10171000323031392D30372D313600002A207075A6
:10172000626C6973682064617465202020203A200F
:1017300025730D0A000000002A2048617264776159
:1017400072652076657273696F6E3A205625642E35
:1017500025642E2564202853544D33324631307889
:101760005F5374645065726970685F44726976652E
:1017700072290D0A00000000044A0029D16901D035
:10178000014300E08143D161704700000010024036
:10179000044A0029916901D0014300E0814391612D
:1017A000704700000010024030B51F494A6812F02F
:1017B0000C031E4A03D0042B01D0082B21D0026059
:1017C0004A680F231A4C03EA1212A35C0268DA403B
:1017D00042604B68072505EA1323E35C22FA03F312
:1017E00083604B6805EAD323E35CDA40C260496852
:1017F000032303EA9131231F595CB2FBF1F101612C
:1018000030BD4A684B6802F470124FF0020413F4C2
:10181000803F04EB924202D04B689B0301D5054BFD
:1018200000E0024B5A43CAE70010024000127A005F
:101830002C00002000093D00704700002DE9F04316
:10184000814691B08846174600241046FEF7C6FC34
:101850000546B0F5006F03DBA01E11B0BDE8F083B4
:1018600001F0DCFE06463A462FA100F0BFFB1A202D
:10187000705543464A462DA1684600F0B7FB6422E6
:1018800031A136A0FFF78DFA41F288374FF47A780C
:101890004FF0FF35C0B13A4634A16846FFF781FAF0
:1018A00068B10124224634A134A0FFF77AFA4246F7
:1018B00035A13046FFF775FA002830D12AE03046CE
:1018C00001F0F4FA0020C8E7642231A123A0FFF759
:1018D00068FA60B1012228A128A0FFF762FA424607
:1018E00029A13046FFF75DFAA0B1012417E0642278
:1018F0002CA11AA0FFF755FA88B13A461BA16846F9
:10190000FFF74FFA0028CCD142462AA12CA0FFF7BE
:1019100048FAD4E7304601F0C9FA28469DE7304638
:1019200001F0C4FA204698E725730D0041542B437B
:10193000495053544152543D22544350222C2225A5
:1019400073222C25640D000053544154453A4950EC
:1019500020494E495449414C0000000041542B435A
:10196000495053544154555300000000434F4E4ECC
:10197000454354204F4B00003E00000041542B4390
:10198000495053454E44000053454E44204F4B00B0
:1019900053544154453A434F4E4E454354204F4BC8
:1019A0000000000053544154453A434C4F534544C2
:1019B00000000000434C4F5345204F4B00000000F7
:1019C00041542B434950434C4F5345000CB5002123
:1019D000264801910091026842F4803202604FF47F
:1019E000A063026802F400320092019A521C019234
:1019F000009A12B9019A9A42F3D10268920333D540
:101A0000012100911A490A6842F010020A600A682E
:101A100022F003020A600A6842F002020A6041688A
:101A2000416041684160416841F4806141604168C2
:101A300021F47C114160416841F4E8114160016882
:101A400041F08071016001688901FCD5416821F095
:101A500003014160416841F0020141604168C1F306
:101A600081010229FAD10CBD00910CBD0010024089
:101A70000020024030B501782D2906D00024002234
:101A8000134601782E2903D004E00124401CF6E718
:101A900010F8011FA1F13005092D09D802EB8202CF
:101AA00001EB42025B1CDBB2401C303A0F2BE8D347
:101AB0000CB1504230BD104630BD70B502782D2AB1
:101AC00003D0002500231C4615E0491E0125C9B29C
:101AD000401CF7E702782E2A01D110F8012FA2F15D
:101AE0003006092E09D803EB8303641C02EB430381
:101AF000401CE4B2303B8C42ECD30DB1584270BD77
:101B0000184670BDAFF3008070B51B4C60680122B1
:101B100020B16068401E606000D12270174B002128
:101B200001EB410003EB800045684DB145686D1E37
:101B3000456005D142700578012D01D18568456069
:101B4000491CC9B20429EBD3A068401CA060A0685E
:101B50006FF000410025884200D1A56001F0EAF84D
:101B60006078401CC0B260700A2804D36570BDE87C
:101B7000704001F0DDB870BD08000020EC010020CD
:101B80000F4810B5016841F00101016041680D4A3C
:101B90001140416001680C4A11400160016821F464
:101BA00080210160416821F4FE0141604FF41F0172
:101BB0008160FFF70BFF05494FF00060086010BD22
:101BC000001002400000FFF8FFFFF6FE08ED00E005
:101BD00070B502214C07204600F051F8204D50B15D
:101BE0000221204600F03EF800220221204600F0AB
:101BF00052F8E86880470421204600F040F850B1D0
:101C00000421204600F02EF800220421204600F096
:101C100042F8286980470821204600F030F850B18A
:101C20000821204600F01EF800220821204600F07E
:101C300032F8686980471021204600F020F800281B
:101C40000CD01021204600F00DF800221021204673
:101C500000F021F8A869BDE87040004770BD0000A1
:101C600008000020C943018270470029018802D082
:101C700041F0010101E021F00101018070470246BD
:101C80000020138A92890B4202EA010202D0002A44
:101C900000D001207047002A828901D00A4300E069
:101CA0008A4382817047000030B502881B4B1C4C70
:101CB00098420DD0A0420BD0B0F1804F08D0194D02
:101CC000A84205D0184DA84202D0184DA84203D111
:101CD00022F070054A882A43154DA84206D0154DBA
:101CE000A84203D022F44075CA882A4302808A8819
:101CF00082850A88028598420AD0A04208D00E4AFE
:101D0000904205D00D4A904202D00D4A904201D136
:101D1000097A01860121818230BD0000002C01403A
:101D2000003401400004004000080040000C004066
:101D300000100040001400400040014000440140F9
:101D400000480140014800F0ABB800001C02002030
:101D5000014800F0A5B80000440A0020C9430180F2
:101D600070470029818902D041F4005101E021F43B
:101D700000518181704730B501F01F020124002518
:101D8000C1F3421304FA02F2012B0FD0022B0FD041
:101D9000838A4FEA11210088134204FA01F400EA11
:101DA000040001D000B10125284630BD8389F0E749
:101DB000038AEEE710B5C1F3421301F01F040121BD
:101DC000A140012B07D0022B07D01430002A026853
:101DD00005D00A4304E00C30F8E71030F6E78A43F8
:101DE000026010BD30B50446008A85B00D464CF641
:101DF000FF710840E98801432182A1894EF6F31062
:101E00000140A8882A8910436A890A431043A081A7
:101E1000A08A4FF6FF410840A9890143A182684684
:101E2000FFF7C2FC1948844201D1039800E00298F0
:101E3000A189090400EBC00101EB0010296801D55C
:101E4000490000E08900B0FBF1F06422B0FBF2F140
:101E500009010B096FF018056B4300EB8300A389A0
:101E60001D044FF0320306D503EBC000B0FBF2F0C7
:101E700000F0070005E003EB0010B0FBF2F000F00B
:101E80000F000843208105B030BD0000003801403C
:101E90008088C0F308007047C1F308018180704753
:101EA0002DE9F0410446006840F22551FFF763FF39
:101EB0000025B8B12068FFF7EBFFE28AA168C0B245
:101EC0008854E18A491C8AB2E282E1898A4200D3BD
:101ED000E582628B8A4202D2618B491C6183616A0E
:101EE00001B1884740F2277739462068FFF743FF62
:101EF00040F2266690B1A08AC0B900223946206817
:101F0000FFF758FF31462068BDE8F0410122FFF796
:101F100051BFA08A401EA082BDE8F08131462068F2
:101F2000FFF729FF0028F7D0A08A70B1618A6068A6
:101F3000415C2068FFF7B0FF608A401C80B260827D
:101F4000A1898842E5D36582E3E700223146206813
:101F5000FFF730FF206A0028DED0BDE8F0410047DF
:101F6000174916484FF48062086001F12800486064
:101F700000F5806088608A81CA81002008824882DA
:101F8000C882088348838882C8610862486201F673
:101F900028010C4B0B6001F128034B6001F58563B0
:101FA0008B608A81CA8108824882C88208834883FC
:101FB0008882C861086248627047000000380140AA
:101FC0001C02002000440040FEE700000FB4054B57
:101FD00010B503A9044A029800F002F910BC5DF89C
:101FE00014FB00009B2E0008500000200FB4084B8B
:101FF00010B504A902AA039800F0F2F8044602A959
:10200000002000F084FC204610BC5DF814FB0000AA
:102010000F29000801480068704700005C0000209C
:1020200002E008C8121F08C1002AFAD170477047A1
:10203000002001E001C1121F002AFBD170470000FF
:1020400001490860704700005C0000202DE9FF5F37
:1020500082B00021DDE90430020DDDF840B0034319
:1020600018D044F61050A2F2FF32424315141198D2
:1020700001281FD0A5EB0B00401C5FEA000A4FF0BF
:1020800000064E4FDFF83891B046504615D5CAF1DC
:10209000000413E0119801244AA3012801D16FEA3A
:1020A0000B010298119AC0E90031C0E9024206B062
:1020B000BDE8F09FCBF10000DFE704460021404A75
:1020C000491842EB0450CDE9001012E0E00707D0B8
:1020D00032463B4640464946FEF7CBFA80468946A3
:1020E00032463B4610461946FEF7C3FA06460F46EF
:1020F0006410002CEAD1DDE90401DDE90023BAF126
:10210000000F06DAFEF7B5FA42464B46FEF7B1FA83
:1021100005E0FEF71EF942464B46FEF71AF9044663
:102120000E460022284BFEF72FFB03D84FF0FF305E
:10213000014607E00022254B20463146FEF762F8B3
:10214000FEF709FB102409E0002C0ADB0A22002319
:10215000FEF791F9039B30321A55641E50EA0102D2
:10216000F2D1641C039AC4F111031444119A012A98
:1021700003D0012208430DD10AE0084304D0002017
:102180004FF0110B119072E7A3EB0B056D1E0DE0E4
:102190005B4504DD4FF0000205F1010504E003DAC0
:1021A0004FF00002A5F10105002AECD00298119928
:1021B000C0E90231C0E9004579E7000000001440A1
:1021C0000000F03F300000000000F0430000E03F5E
:1021D00030380A2801D201207047002070470000E3
:1021E0002DE9FF4F95B09B468946064600250FE234
:1021F000252877D100242746F84A0121059400E0DC
:10220000044316F8013F203B01FA03F01042F7D1D6
:1022100030782A2811D06FF02F033078A0F13002E7
:10222000092A16D8059A44F0020402EB820203EB55
:1022300042021044761C0590EFE759F8042B0592F2
:10224000002A03DA504244F40054059044F002049A
:10225000761C30782E2816D116F8010F44F00404AD
:102260002A280DD06FF02F023078A0F13003092B0F
:1022700009D807EB870302EB4303C718761CF3E783
:1022800059F8047B761C30786C280FD006DC4C287B
:1022900017D068280DD06A2814D104E0742810D013
:1022A0007A280FD10DE044F400140AE044F48014BD
:1022B00001E044F440147278824202D104F58014A3
:1022C000761C761C307866280BD013DC582877D023
:1022D00009DC002875D04528F6D04628F4D04728D8
:1022E0001AD19DE118E0632835D0642879D065289B
:1022F00012D195E1702873D008DC6728F1D06928E5
:102300006FD06E280DD06F2806D1B5E073282CD081
:10231000752875D0782874D05A46179990476D1C47
:1023200075E1C4F30250022809D003280DD0D9F872
:10233000001004280DD00D6009F1040967E1D9F8F7
:102340000010EA17C1E90052F6E7D9F800100D8035
:10235000F2E70D70F0E719F8041B8DF8001000206B
:102360008DF80100EA46012003E059F804AB4FF074
:10237000FF3061074FF0000102D40DE008F10101C8
:102380008846B9420FDA8045F8DB1AF808100029B0
:10239000F4D108E008F1010188468142FADB1AF81D
:1023A00008100029F6D105985B46A0EB08072146E6
:1023B0003846179A00F094FA284400EB080507E025
:1023C0004DE029E10DE01AF8010B5A4617999047A4
:1023D000B8F10108F7D25B4621463846179A13E157
:1023E00042E00A220092C4F302524FF0000A022A8D
:1023F00008D059F804CB032A4FEAEC710AD00DE05B
:1024000029E02AE009F1070121F00702F2E802C100
:10241000914609E00FFA8CFC4FEAEC71042A03D1D3
:102420004FFA8CFC4FEAEC71002907DA0A460021CA
:10243000DCF1000C61EB02012D2202E0220504D543
:102440002B228DF80420012203E0E20701D0202294
:10245000F7E7904659E00A2102E010220DE0102132
:102460004FF0000A00910BE010224FF0000A44F0F8
:1024700004040827009203E008224FF0000A0092AB
:10248000C4F30252022A05D059F804CB0021032AD2
:1024900008D009E009F1070121F00702F2E802C1C2
:1024A000914605E01FFA8CFC042A01D10CF0FF0CC8
:1024B0004FF00008220728D5702806D0009B83F033
:1024C000100353EA0A0305D00EE040228DF80420E1
:1024D000012208E05CEA010206D030228DF80420D7
:1024E0008DF8050002229046009B83F0080353EA12
:1024F0000A030AD15CEA010201D1620705D5302244
:102500008DF804204FF001087F1E582804D034A015
:1025100003900EA802900DE036A0F9E753466046FE
:10252000009AFDF7A8FF84460398825C0298401E3B
:10253000029002705CEA0100F0D1029806A9081A24
:1025400000F1200A600702D524F4803400E001275E
:10255000574502DDA7EB0A0000E0002000EB0A016E
:10256000009005984144401A0590E00306D45B466C
:102570002146179A059800F0B3F90544002706E0B4
:1025800001A85A46C05D179990476D1C7F1C4745AE
:10259000F6DBE0030CD55B462146179A059800F060
:1025A0009FF9054404E030205A46179990476D1C66
:1025B0000099481E00900029F5DC08E00298029975
:1025C0005A460078491C0291179990476D1CBAF140
:1025D0000001AAF1010AF1DC65E10000092801000F
:1025E0003031323334353637383961626364656689
:1025F000000000003031323334353637383941424B
:10260000434445460000000000F058F90544761C9C
:10261000307800287FF4ECAD19B02846BDE8F08F83
:10262000620700D4062709F1070222F0070CFCE834
:102630000223E14603F000485FEA080C02D00FF2E3
:10264000702C0DE05FEA045C02D50FF2682C07E005
:102650005FEAC47C02D00FF2602C01E0AFF2700C94
:102660004FF0FF3823F00043CDF850C065280CD060
:1026700006DC452809D046281DD047283DD13DE03D
:10268000662818D067287ED138E00021112F01DBA1
:10269000112000E0781CCDE9000106A90EA8FFF783
:1026A000D5FCDDE90F010E9A03910021009207F19C
:1026B000010A04914DE04FF000400097CDE9011070
:1026C00006A90EA8FFF7C2FCDDE90F0203920E9BDC
:1026D00011990022DDF80CA00093049211B9791C25
:1026E00000EB010AB7EB0A0004D4C0F1FF3007F198
:1026F000010A0490AAEB0700019044E0012F00DAE0
:1027000001270021112F01DD112000E03846CDE91D
:10271000000106A90EA8FFF799FCDDE90F010E9A4A
:102720000391002104910092BA4621070CD4039929
:10273000514500DA8A46BAF1010F05DD009AAAF187
:102740000101515C302908D0B84202DA10F1040FBF
:1027500006DA0121CDE9011015E0AAF10101E9E74E
:10276000002805DC049901440491AAEB000102E071
:10277000411C514500DD8A460499401A401C0190D5
:102780004FF000400290200704D40198504501DB2F
:10279000CDF8048000208DF84F0002980DF14F070E
:1027A000B0F1004F25D02B200E9002984FF0020878
:1027B00000280CDA404202902D200E9007E00A21FA
:1027C0000298FDF742FE3031029007F8011DB8F182
:1027D0000001A8F10108F2DC02980028EFD1791E6F
:1027E0000E980870307800F0200040F0450007F89F
:1027F000020D12A8C01B00F107081498007800B160
:10280000012000EB0A01019801EBE07105984144B9
:10281000401A401E0590E00306D45B462146179AF5
:10282000059800F05DF805441498007818B15A46F0
:10283000179990476D1CE00324D55B462146179AF3
:10284000059800F04DF805441CE00498002807DBCB
:10285000DDE90301884203DD0098405C179901E03F
:10286000179930205A469047049805F10105401CFD
:1028700004900198401E019004D12E205A461799C9
:1028800090476D1CBAF10001AAF1010ADDDC05E0F8
:1028900017F8010B5A46179990476D1CB8F10001C3
:1028A000A8F10108F4DC5B462146179A0598ABE6CF
:1028B0002D0000002B000000200000002DE9F04159
:1028C000044600251E461746880404D405E0394610
:1028D0002020B0476D1C641EF9D52846BDE8F08164
:1028E0002DE9F041044600251E469046C80301D557
:1028F000302700E02027880404D505E0414638460B
:10290000B0476D1C641EF9D52846BDE8F0810A6801
:10291000531C0B601070704730B583B00446FFF74E
:1029200079FB05460020CDE90000024621466846B5
:10293000FDF70FFE2846FFF783FBDDE9000103B03A
:1029400030BD0000042807D200EB4001054800EB31
:1029500081004178012901D0002070470021417099
:1029600001207047EC01002070B50646284800EBB6
:10297000061420688047052100250028207906EBF1
:10298000460331D0052801D2217170BD0A2802D238
:10299000401C207170BDA07A06EB4606761C20B95B
:1029A0000120A072F0B200F0B5F921890029F1D020
:1029B000E088884208D2401C80B2E08021898842A9
:1029C000E8D1DB1CD8B20BE0E07A0028E2D0207B13
:1029D000401CC0B22073E17A8842DBD32573F0B289
:1029E000BDE8704000F096B9052801D921710BE0CF
:1029F00010B1401E207107E0A07A012804D19B1C71
:102A0000A572D8B200F086F9E580257370BD00008C
:102A10003C010020704710B54FF44070FEF708FEEF
:102A200000F052F900F076F8BDE8104000F01CB953
:102A300011481049016000F13801816000210171E5
:102A400000F14401C16040310161403141610C310C
:102A50008161142141775821017708A1016208A101
:102A6000416208A181620AA1C1620BA101630CA1AC
:102A70004163704700000020600000206C6174001A
:102A80006C6F6E0074656D7065726174757265004F
:102A9000706D322E35000000535045454400000053
:102AA000416C746974756465000000007FB5012194
:102AB0000846FEF761FE15481549002400684FF0EE
:102AC00080454008B0FBF1F04FF6FF71ADF80410FF
:102AD000ADF80000ADF80640ADF802406946284662
:102AE000FFF7E2F801212846FFF7BFF81C208DF818
:102AF0000C0004208DF80D008DF80E4001208DF89B
:102B00000F0003A8FEF762FD7FBD00003C0000201F
:102B100040420F0010B500F053F8BDE8104000F03F
:102B200001B8000038B501214FF49A70FEF730FE6D
:102B300003208DF8020004208DF80300C402ADF8D4
:102B4000004069461A48FEF7A1FA0120ADF80000DE
:102B500069461848FEF79AFA6011174DADF8000063
:102B600069462846FEF792FAA000ADF800006946D3
:102B70002846FEF78BFA0820ADF8000069460F489A
:102B8000FEF784FA6000ADF8000069462846FEF7BB
:102B90007DFAADF8004069462846FEF777FA8020B6
:102BA000ADF8000069462846FEF770FA38BD00000F
:102BB00000100140000801400020014000140140C5
:102BC00030B51E48002164238172C1720173A038A0
:102BD0000A46022500EB0214521C23812571A172C2
:102BE000E172D2B221730A2AF4D30387052180F857
:102BF0003B10A0F8483080F84B10A0F8583080F80F
:102C00005B10A0F8683080F86B100D4940F82C1B61
:102C10000C4940F81C1C0C4940F80C1C0B49416045
:102C20000B4941610B4941620B4941630B494164C6
:102C30000B4941650B49416630BD0000DC010020B5
:102C400089140008E11400080D1500083915000862
:102C50004D15000861150008751500088915000854
:102C60009D150008B514000830B40020134A014631
:102C700000EB400402EB840359609960597002F83C
:102C80002410401CC0B20428F2D30D484FF47A72CD
:102C90000068B0FBF2F0B0F1807F0CD220F07F42F0
:102CA0004FF0E020521E4261064BF02283F8142DB3
:102CB00081610721016130BCFFF7F8BEEC01002003
:102CC0003C0000200FE000E038B5FFF749F9FEF7BF
:102CD0004BFB25208DF8000000208DF80200012418
:102CE0008DF803406846FEF771FC26208DF8000041
:102CF0008DF802408DF803406846FEF767FC38BD4A
:102D000010B500242046FFF72FFE641CE4B20A2C05
:102D1000F8D310BD0549CA7A8854C87A401CC0B29D
:102D2000C8720A2801D30020C8727047DC01002055
:102D3000FFF7E6BF7047000010B5042805D30B4A23
:102D40000BA113A0FFF742F9FEE7012282F31088DE
:102D5000174A00EB400302EB8300416081600021D1
:102D6000417002F8231081F3108810BD88360008E6
:102D70002E2E5C2E2E5C557365725C6273705C73D4
:102D800072635C6273705F74696D65722E630000BC
:102D90004572726F723A2066696C652025732C202B
:102DA00066756E6374696F6E20257328290D0A009D
:102DB000EC01002000B5FEF7A3F8002803D00021A5
:102DC000C1820183418300BD10B5FEF799F8002848
:102DD0001FD00246012080F31088538B002080F31F
:102DE0001088002B15D0148B93681B5D0B7001218C
:102DF00081F31088118B491C89B21183D3899942C0
:102E000000D31083508B401E5083002080F3108825
:102E1000012010BDF8B515460E46FEF771F8040006
:102E200034D0E06900B18047002025E0A18901226B
:102E300082F31088A28AADF80020002282F3108865
:102E4000BDF800209142F2D9315C238A6268D154E6
:102E5000012181F31088218A491C89B22182A2892B
:102E6000914201D300212182A18A491CA182002123
:102E700081F31088401C80B2A842D7D32068BDE8F7
:102E8000F840012240F22771FEF794BFF8BD13B558
:102E9000012201A9FFF7BEFF1CBD10B50446C1B257
:102EA0000020FFF7F4FF204610BD000010B50028F9
:102EB00021D0114B0022001F196803E0814203D882
:102EC0000A4649680029F9D152B11368841A9C4214
:102ED00004D1006818441060104602E0506000E021
:102EE000186039B102680B1A934203D10B681A4477
:102EF00002604968416010BD5400002070B5002692
:102F000046542C21FDF760F900287DD0401C054671
:102F10000221FEF7D2FD4B4CAD1C022104F8620FDA
:102F20002846FEF7CAFD6070AD1C02212846FEF758
:102F3000C4FDA070A81C2C21623CFDF745F90500DA
:102F40007BD0451C02212846FEF7B7FDA4F84E00B1
:102F5000AD1C02212846FEF7B0FD3B49ED1C48435D
:102F6000206505212846FEF7A8FD216D084420654F
:102F7000681D2C21FDF728F900285ED010F8011FEC
:102F8000532901D04E2958D184F854102C21FDF733
:102F90001BF9002851D0401C05460321FEF78DFD8A
:102FA000A4F85600ED1C02212846FEF786FD2649AE
:102FB000ED1C4843A06505212846FEF77EFDA16D66
:102FC0000844A065681D2C21FDF7FEF8002834D0C8
:102FD00010F8011F452901D0572901D184F85C1050
:102FE0002C21FDF7F1F8002827D010F8011F312916
:102FF00024D0322922D066702C21FDF7E5F8002874
:103000001BD0401C054600E017E0FEF733FD20779B
:10301000A81C2C21FDF7D8F800280ED0401C05462E
:10302000FEF728FD20832C212846FDF7CDF8002847
:1030300003D0401CFEF71EFD606070BD0121617071
:10304000DAE700006C160020A086010070B50022AF
:1030500042542C21FDF7B8F800286BD0401C0546DF
:103060000221FEF72AFD344CAD1C0221A4F84E00CB
:103070002846FEF722FD3149ED1C48432065052115
:103080002846FEF71AFD216D08442065681D2C2195
:10309000FDF79AF800284DD010F8011F532901D0F0
:1030A0004E2947D184F854102C21FDF78DF80028C3
:1030B00040D0451C03212846FEF7FFFCA4F856002B
:1030C000ED1C02212846FEF7F8FC1C49ED1C484384
:1030D000A06505212846FEF7F0FCA16D0844A06517
:1030E000681D2C21FDF770F8002823D010F8011F6F
:1030F000452901D0572901D184F85C102C21FDF716
:1031000063F8002816D0451C02212846FEF7D5FC9E
:1031100004F8620FAD1C02212846FEF7CEFC607059
:10312000AD1C02212846FEF7C8FCA070A81C2C216B
:10313000FDF74AF870BD00006C160020A086010063
:1031400070B5002242542C21FDF73EF800283CD0F7
:103150001E4C10F8011F21722C21FDF735F80028B4
:1031600033D0451C4078607200262C212846FDF79C
:103170002BF8002829D0401C0546FEF77BFCA1193E
:10318000761CF6B288720C2EEFD32C212846FDF760
:103190001BF8002819D0401C0546FEF76BFCE082A6
:1031A0002C212846FDF710F800280ED0401C0546BB
:1031B000FEF760FC20832C212846FDF705F8002847
:1031C00003D0401CFEF756FC608370BD6C160020D7
:1031D0002DE9F047002242542C21FCF7F5FF00288E
:1031E00052D02C21401CFCF7EFFF00284CD0441C8F
:1031F0002046FEF73FFCC7B22C212046FCF7E4FF37
:10320000002841D0401C0546FEF734FC1F4E002428
:1032100030772C212846FCF7D7FF002834D0451CF6
:103220002846FEF727FCB900091F01EB040909EB4A
:1032300006082C2188F80A002846FCF7C5FF00285C
:1032400022D0401C0546FEF715FC88F81D002C21F5
:103250002846FCF7B9FF002816D0401C0546FEF7AB
:1032600009FC06EB490148852C212846FCF7ACFFF8
:10327000002809D0401C0546FEF7FCFB641CE4B2A4
:1032800088F84200042CC4D3BDE8F0876C160020F7
:1032900070B5002646542C21FCF796FF002825D057
:1032A000401C05460221FEF708FC544CAD1C0221CF
:1032B00004F8620F2846FEF700FC6070AD1C022186
:1032C0002846FEF7FAFBA070ED1C03212846FEF706
:1032D000F4FBA0802C212846623CFCF775FF0028F7
:1032E00004D010F8011F412901D0667070BD012182
:1032F00061702C21401CFCF767FF0028F6D0401CB1
:1033000005460221FEF7D9FBA4F84E00AD1C0221B0
:103310002846FEF7D2FB3A49ED1C484320650521BB
:103320002846FEF7CAFB216D08442065681D2C2144
:10333000FCF74AFF0028D9D010F8011F532901D00B
:103340004E29D3D184F854102C21FCF73DFF0028DE
:10335000CCD0401C05460321FEF7AFFBA4F8560075
:10336000ED1C02212846FEF7A8FB2549ED1C484329
:10337000A06505212846FEF7A0FBA16D0844A065C5
:10338000681D2C21FCF720FF0028AFD010F8011F8A
:10339000452901D0572901D184F85C102C21FCF774
:1033A00013FF0028A2D0401C0546FEF763FB2067F0
:1033B0002C212846FCF708FF002897D0401C054622
:1033C000FEF758FBA4F86A002C212846FCF7FCFE07
:1033D00000288BD0451C02212846FEF76EFB84F89E
:1033E0006100AD1C022128465E34FEF766FBA0702A
:1033F000A81C0221FEF761FB208070BD6C16002026
:10340000A086010070B5002242542C21FCF7DCFE9E
:10341000002839D0401C0546FEF72CFB1B4C2C2104
:10342000A4F86A002846FCF7CFFE00282CD02C21F7
:10343000401CFCF7C9FE002826D0401C0546FEF7BC
:1034400019FBA4F86C002C212846FCF7BDFE0028CF
:103450001AD02C21401CFCF7B7FE002814D0401CC9
:103460000546FEF707FB20672C212846FCF7ACFE3B
:10347000002809D02C21401CFCF7A6FE002803D010
:10348000401CFEF7F7FA606770BD00006C16002064
:10349000F8B50126184C002569460120FFF794FC79
:1034A000002827D09DF800100020FFF7F0FC2078BE
:1034B000B8B16088B0F5806F1AD2104A9DF800103C
:1034C0001154401C80B260800D2901D00A29E3D13B
:1034D000401E81B20948FDF777FC09482570067047
:1034E000DAE79DF800002428D6D126706580D3E75E
:1034F0002570D1E7F8BD0000240000206C120020E8
:103500006C160020ADF5826DFFF785FAFEF79CF88A
:10351000FFF78EFAFDF7BCFB42F2107544E000BFE6
:10352000FFF778FA0DF581610020FFF74DFC28B117
:1035300001220DF581611046FFF76CFC0DF58161EC
:103540000120FFF741FC18B19DF80804FDF766FE65
:103550000020FFF7F7F90028E2D016A0FDF710FCD5
:10356000FDF7DEFC174C2169606ACDE9000116A168
:1035700002A8E368226AFEF739FDD4E9033216494E
:1035800002A8FEF733FD02A8FCF728FE02A9CDE948
:10359000000112A319A21C4982A8FEF727FD82AAE6
:1035A00050211AA0FEF74AF929460020FFF7C4FB74
:1035B000B6E7000041542B414D474E535352443F10
:1035C00000000000600000202C3B25732C25733B7D
:1035D00025732C2573000000F83600086B4B41550D
:1035E0006B57307A384148695061395037455949ED
:1035F00051504B7950754D3D000000003533353743
:1036000035393730350000004C3700083138332E5B
:103610003233302E34302E3333000000F0B50B300F
:10362000154D20F007010024144A0FE003688B4277
:103630000BD38B4205D95E1A43184768C3E900676C
:1036400000E04368136002C004E0021D1068002817
:10365000ECD12046002802D1286808B10020F0BD36
:10366000064A07481060074A121A22F00702C0E90A
:10367000002401202860D7E75800002054000020D3
:10368000EC160020E84600206273705F537461728C
:103690007454696D6572006273705F537461727403
:1036A0004175746F54696D6572006273705F537415
:1036B0006F7054696D657200DDDDDDDDDCBBBBDD87
:1036C000DDDDDDDDDDDDDDDD9888888888888888C2
:1036D00077777777778888888555555666666666E2
:1036E00066666666666888888333333222222222C1
:1036F000222222222228888D7B22646174617374C5
:103700007265616D73223A5B7B226964223A226C96
:103710006F636174696F6E222C2264617461706FD3
:10372000696E7473223A5B7B2276616C7565223A0E
:103730007B226C6F6E223A25732C226C6174223AC4
:1037400025737D7D5D7D5D7D0D0A0000504F5354D6
:10375000202F646576696365732F25732F64617408
:1037600061706F696E747320485454502F312E313C
:103770000D0A6170692D6B65793A2025730D0A4831
:103780006F73743A206170692E6865636C6F75643D
:10379000732E636F6D0D0A436F6E74656E742D4CDE
:1037A000656E6774683A2025640D0A0D0A2573005A
:1037B000D037000800000020600000002020000832
:1037C0003038000860000020884E000030200008DB
:1037D00000000000000000000000000000000000E9
:1037E00000000000000000000000000000000000D9
:1037F00000000000000000000204060800000000B5
:1038000001020304010203040607080900A24A0496
:103810000000000000000000010203040607080980
:103820000000000000000000000000000000000098
:0400000508000131BD
:00000001FF
